{"abi":[{"type":"constructor","inputs":[],"stateMutability":"nonpayable"},{"type":"function","name":"AD_DURATION","inputs":[],"outputs":[{"name":"","type":"uint256","internalType":"uint256"}],"stateMutability":"view"},{"type":"function","name":"AD_FEE","inputs":[],"outputs":[{"name":"","type":"uint256","internalType":"uint256"}],"stateMutability":"view"},{"type":"function","name":"acceptAd","inputs":[{"name":"adId","type":"uint256","internalType":"uint256"}],"outputs":[],"stateMutability":"nonpayable"},{"type":"function","name":"adCounter","inputs":[],"outputs":[{"name":"","type":"uint256","internalType":"uint256"}],"stateMutability":"view"},{"type":"function","name":"admin","inputs":[],"outputs":[{"name":"","type":"address","internalType":"address"}],"stateMutability":"view"},{"type":"function","name":"ads","inputs":[{"name":"","type":"uint256","internalType":"uint256"}],"outputs":[{"name":"owner","type":"address","internalType":"address payable"},{"name":"content","type":"string","internalType":"string"},{"name":"acceptedAt","type":"uint256","internalType":"uint256"},{"name":"status","type":"uint8","internalType":"enum Advertisement.AdStatus"}],"stateMutability":"view"},{"type":"function","name":"getActiveAds","inputs":[],"outputs":[{"name":"activeIds","type":"uint256[]","internalType":"uint256[]"},{"name":"contents","type":"string[]","internalType":"string[]"}],"stateMutability":"view"},{"type":"function","name":"getAdState","inputs":[{"name":"adId","type":"uint256","internalType":"uint256"}],"outputs":[{"name":"","type":"string","internalType":"string"}],"stateMutability":"view"},{"type":"function","name":"rejectAd","inputs":[{"name":"adId","type":"uint256","internalType":"uint256"}],"outputs":[],"stateMutability":"nonpayable"},{"type":"function","name":"submitAd","inputs":[{"name":"content","type":"string","internalType":"string"}],"outputs":[],"stateMutability":"payable"},{"type":"event","name":"AdAccepted","inputs":[{"name":"adId","type":"uint256","indexed":false,"internalType":"uint256"}],"anonymous":false},{"type":"event","name":"AdRejected","inputs":[{"name":"adId","type":"uint256","indexed":false,"internalType":"uint256"}],"anonymous":false},{"type":"event","name":"AdSubmitted","inputs":[{"name":"adId","type":"uint256","indexed":false,"internalType":"uint256"},{"name":"user","type":"address","indexed":true,"internalType":"address"},{"name":"content","type":"string","indexed":false,"internalType":"string"}],"anonymous":false}],"bytecode":{"object":"0x608060405234801561000f575f80fd5b50335f806101000a81548173ffffffffffffffffffffffffffffffffffffffff021916908373ffffffffffffffffffffffffffffffffffffffff160217905550611aa78061005c5f395ff3fe608060405260043610610090575f3560e01c8063b879da5611610058578063b879da561461018b578063c9f21c38146101b3578063d04fe107146101cf578063e2f81b84146101fa578063f851a4401461022457610090565b8063065eb3c71461009457806311a7a4c0146100d05780631ce1e3c51461010f578063331ce52b146101395780636caeea7b14610163575b5f80fd5b34801561009f575f80fd5b506100ba60048036038101906100b59190610f27565b61024e565b6040516100c79190610fdc565b60405180910390f35b3480156100db575f80fd5b506100f660048036038101906100f19190610f27565b610467565b60405161010694939291906110bd565b60405180910390f35b34801561011a575f80fd5b50610123610544565b6040516101309190611107565b60405180910390f35b348015610144575f80fd5b5061014d61054b565b60405161015a9190611107565b60405180910390f35b34801561016e575f80fd5b5061018960048036038101906101849190610f27565b610551565b005b348015610196575f80fd5b506101b160048036038101906101ac9190610f27565b6107a8565b005b6101cd60048036038101906101c89190611181565b6109f8565b005b3480156101da575f80fd5b506101e3610be5565b6040516101f1929190611386565b60405180910390f35b348015610205575f80fd5b5061020e610ebe565b60405161021b9190611107565b60405180910390f35b34801561022f575f80fd5b50610238610ec9565b60405161024591906113db565b60405180910390f35b60605f60025f8481526020019081526020015f2090505f60028111156102775761027661104a565b5b816003015f9054906101000a900460ff16600281111561029a5761029961104a565b5b036102dd576040518060400160405280600781526020017f50656e64696e6700000000000000000000000000000000000000000000000000815250915050610462565b6002808111156102f0576102ef61104a565b5b816003015f9054906101000a900460ff1660028111156103135761031261104a565b5b03610356576040518060400160405280600881526020017f52656a6563746564000000000000000000000000000000000000000000000000815250915050610462565b6001600281111561036a5761036961104a565b5b816003015f9054906101000a900460ff16600281111561038d5761038c61104a565b5b03610428576201518081600201546103a59190611421565b4211156103ea576040518060400160405280600781526020017f4578706972656400000000000000000000000000000000000000000000000000815250915050610462565b6040518060400160405280600681526020017f4163746976650000000000000000000000000000000000000000000000000000815250915050610462565b6040518060400160405280600781526020017f556e6b6e6f776e000000000000000000000000000000000000000000000000008152509150505b919050565b6002602052805f5260405f205f91509050805f015f9054906101000a900473ffffffffffffffffffffffffffffffffffffffff16908060010180546104ab90611481565b80601f01602080910402602001604051908101604052809291908181526020018280546104d790611481565b80156105225780601f106104f957610100808354040283529160200191610522565b820191905f5260205f20905b81548152906001019060200180831161050557829003601f168201915b505050505090806002015490806003015f9054906101000a900460ff16905084565b6201518081565b60015481565b5f8054906101000a900473ffffffffffffffffffffffffffffffffffffffff1673ffffffffffffffffffffffffffffffffffffffff163373ffffffffffffffffffffffffffffffffffffffff16146105de576040517f08c379a00000000000000000000000000000000000000000000000000000000081526004016105d5906114fb565b60405180910390fd5b5f60025f8381526020019081526020015f2090505f60028111156106055761060461104a565b5b816003015f9054906101000a900460ff1660028111156106285761062761104a565b5b14610668576040517f08c379a000000000000000000000000000000000000000000000000000000000815260040161065f90611563565b60405180910390fd5b6001816003015f6101000a81548160ff0219169083600281111561068f5761068e61104a565b5b02179055504281600201819055505f805f9054906101000a900473ffffffffffffffffffffffffffffffffffffffff1673ffffffffffffffffffffffffffffffffffffffff1666038d7ea4c680006040516106e9906115ae565b5f6040518083038185875af1925050503d805f8114610723576040519150601f19603f3d011682016040523d82523d5f602084013e610728565b606091505b505090508061076c576040517f08c379a00000000000000000000000000000000000000000000000000000000081526004016107639061160c565b60405180910390fd5b7fda270862860119b4fd6ee1e651039233b41dd2ae05dd302553022f5b44467cb18360405161079b9190611107565b60405180910390a1505050565b5f8054906101000a900473ffffffffffffffffffffffffffffffffffffffff1673ffffffffffffffffffffffffffffffffffffffff163373ffffffffffffffffffffffffffffffffffffffff1614610835576040517f08c379a000000000000000000000000000000000000000000000000000000000815260040161082c906114fb565b60405180910390fd5b5f60025f8381526020019081526020015f2090505f600281111561085c5761085b61104a565b5b816003015f9054906101000a900460ff16600281111561087f5761087e61104a565b5b146108bf576040517f08c379a00000000000000000000000000000000000000000000000000000000081526004016108b690611563565b60405180910390fd5b6002816003015f6101000a81548160ff021916908360028111156108e6576108e561104a565b5b02179055505f815f015f9054906101000a900473ffffffffffffffffffffffffffffffffffffffff1673ffffffffffffffffffffffffffffffffffffffff1666038d7ea4c68000604051610939906115ae565b5f6040518083038185875af1925050503d805f8114610973576040519150601f19603f3d011682016040523d82523d5f602084013e610978565b606091505b50509050806109bc576040517f08c379a00000000000000000000000000000000000000000000000000000000081526004016109b390611674565b60405180910390fd5b7f8856d5c9b991bf905cdc757694401d5f3586c52c3900774c74a16165aafb0be0836040516109eb9190611107565b60405180910390a1505050565b66038d7ea4c680003414610a41576040517f08c379a0000000000000000000000000000000000000000000000000000000008152600401610a38906116dc565b60405180910390fd5b60015f815480929190610a53906116fa565b919050555060405180608001604052803373ffffffffffffffffffffffffffffffffffffffff16815260200183838080601f0160208091040260200160405190810160405280939291908181526020018383808284375f81840152601f19601f8201169050808301925050505050505081526020015f81526020015f6002811115610ae157610ae061104a565b5b81525060025f60015481526020019081526020015f205f820151815f015f6101000a81548173ffffffffffffffffffffffffffffffffffffffff021916908373ffffffffffffffffffffffffffffffffffffffff1602179055506020820151816001019081610b50919061190b565b50604082015181600201556060820151816003015f6101000a81548160ff02191690836002811115610b8557610b8461104a565b5b02179055509050503373ffffffffffffffffffffffffffffffffffffffff167f0ef7f9aaf8f8b7b0ec25389b190e82f57cb6a53efdbe6861da7eec5ef05c2f1a6001548484604051610bd993929190611a14565b60405180910390a25050565b6060805f80600190505b6001548111610c955760016002811115610c0c57610c0b61104a565b5b60025f8381526020019081526020015f206003015f9054906101000a900460ff166002811115610c3f57610c3e61104a565b5b148015610c6e57506201518060025f8381526020019081526020015f2060020154610c6a9190611421565b4211155b15610c82578180610c7e906116fa565b9250505b8080610c8d906116fa565b915050610bef565b508067ffffffffffffffff811115610cb057610caf611741565b5b604051908082528060200260200182016040528015610cde5781602001602082028036833780820191505090505b5092508067ffffffffffffffff811115610cfb57610cfa611741565b5b604051908082528060200260200182016040528015610d2e57816020015b6060815260200190600190039081610d195790505b5091505f80600190505b6001548111610eb75760016002811115610d5557610d5461104a565b5b60025f8381526020019081526020015f206003015f9054906101000a900460ff166002811115610d8857610d8761104a565b5b148015610db757506201518060025f8381526020019081526020015f2060020154610db39190611421565b4211155b15610ea45780858381518110610dd057610dcf611a44565b5b60200260200101818152505060025f8281526020019081526020015f206001018054610dfb90611481565b80601f0160208091040260200160405190810160405280929190818152602001828054610e2790611481565b8015610e725780601f10610e4957610100808354040283529160200191610e72565b820191905f5260205f20905b815481529060010190602001808311610e5557829003601f168201915b5050505050848381518110610e8a57610e89611a44565b5b60200260200101819052508180610ea0906116fa565b9250505b8080610eaf906116fa565b915050610d38565b5050509091565b66038d7ea4c6800081565b5f8054906101000a900473ffffffffffffffffffffffffffffffffffffffff1681565b5f80fd5b5f80fd5b5f819050919050565b610f0681610ef4565b8114610f10575f80fd5b50565b5f81359050610f2181610efd565b92915050565b5f60208284031215610f3c57610f3b610eec565b5b5f610f4984828501610f13565b91505092915050565b5f81519050919050565b5f82825260208201905092915050565b5f5b83811015610f89578082015181840152602081019050610f6e565b5f8484015250505050565b5f601f19601f8301169050919050565b5f610fae82610f52565b610fb88185610f5c565b9350610fc8818560208601610f6c565b610fd181610f94565b840191505092915050565b5f6020820190508181035f830152610ff48184610fa4565b905092915050565b5f73ffffffffffffffffffffffffffffffffffffffff82169050919050565b5f61102582610ffc565b9050919050565b6110358161101b565b82525050565b61104481610ef4565b82525050565b7f4e487b71000000000000000000000000000000000000000000000000000000005f52602160045260245ffd5b600381106110885761108761104a565b5b50565b5f81905061109882611077565b919050565b5f6110a78261108b565b9050919050565b6110b78161109d565b82525050565b5f6080820190506110d05f83018761102c565b81810360208301526110e28186610fa4565b90506110f1604083018561103b565b6110fe60608301846110ae565b95945050505050565b5f60208201905061111a5f83018461103b565b92915050565b5f80fd5b5f80fd5b5f80fd5b5f8083601f84011261114157611140611120565b5b8235905067ffffffffffffffff81111561115e5761115d611124565b5b60208301915083600182028301111561117a57611179611128565b5b9250929050565b5f806020838503121561119757611196610eec565b5b5f83013567ffffffffffffffff8111156111b4576111b3610ef0565b5b6111c08582860161112c565b92509250509250929050565b5f81519050919050565b5f82825260208201905092915050565b5f819050602082019050919050565b6111fe81610ef4565b82525050565b5f61120f83836111f5565b60208301905092915050565b5f602082019050919050565b5f611231826111cc565b61123b81856111d6565b9350611246836111e6565b805f5b8381101561127657815161125d8882611204565b97506112688361121b565b925050600181019050611249565b5085935050505092915050565b5f81519050919050565b5f82825260208201905092915050565b5f819050602082019050919050565b5f82825260208201905092915050565b5f6112c682610f52565b6112d081856112ac565b93506112e0818560208601610f6c565b6112e981610f94565b840191505092915050565b5f6112ff83836112bc565b905092915050565b5f602082019050919050565b5f61131d82611283565b611327818561128d565b9350836020820285016113398561129d565b805f5b85811015611374578484038952815161135585826112f4565b945061136083611307565b925060208a0199505060018101905061133c565b50829750879550505050505092915050565b5f6040820190508181035f83015261139e8185611227565b905081810360208301526113b28184611313565b90509392505050565b5f6113c582610ffc565b9050919050565b6113d5816113bb565b82525050565b5f6020820190506113ee5f8301846113cc565b92915050565b7f4e487b71000000000000000000000000000000000000000000000000000000005f52601160045260245ffd5b5f61142b82610ef4565b915061143683610ef4565b925082820190508082111561144e5761144d6113f4565b5b92915050565b7f4e487b71000000000000000000000000000000000000000000000000000000005f52602260045260245ffd5b5f600282049050600182168061149857607f821691505b6020821081036114ab576114aa611454565b5b50919050565b7f4e6f742061646d696e00000000000000000000000000000000000000000000005f82015250565b5f6114e5600983610f5c565b91506114f0826114b1565b602082019050919050565b5f6020820190508181035f830152611512816114d9565b9050919050565b7f4e6f742070656e64696e670000000000000000000000000000000000000000005f82015250565b5f61154d600b83610f5c565b915061155882611519565b602082019050919050565b5f6020820190508181035f83015261157a81611541565b9050919050565b5f81905092915050565b50565b5f6115995f83611581565b91506115a48261158b565b5f82019050919050565b5f6115b88261158e565b9150819050919050565b7f4661696c656420746f2073656e642066656500000000000000000000000000005f82015250565b5f6115f6601283610f5c565b9150611601826115c2565b602082019050919050565b5f6020820190508181035f830152611623816115ea565b9050919050565b7f4661696c656420746f20726566756e64000000000000000000000000000000005f82015250565b5f61165e601083610f5c565b91506116698261162a565b602082019050919050565b5f6020820190508181035f83015261168b81611652565b9050919050565b7f4d757374207061792066656500000000000000000000000000000000000000005f82015250565b5f6116c6600c83610f5c565b91506116d182611692565b602082019050919050565b5f6020820190508181035f8301526116f3816116ba565b9050919050565b5f61170482610ef4565b91507fffffffffffffffffffffffffffffffffffffffffffffffffffffffffffffffff8203611736576117356113f4565b5b600182019050919050565b7f4e487b71000000000000000000000000000000000000000000000000000000005f52604160045260245ffd5b5f819050815f5260205f209050919050565b5f6020601f8301049050919050565b5f82821b905092915050565b5f600883026117ca7fffffffffffffffffffffffffffffffffffffffffffffffffffffffffffffffff8261178f565b6117d4868361178f565b95508019841693508086168417925050509392505050565b5f819050919050565b5f61180f61180a61180584610ef4565b6117ec565b610ef4565b9050919050565b5f819050919050565b611828836117f5565b61183c61183482611816565b84845461179b565b825550505050565b5f90565b611850611844565b61185b81848461181f565b505050565b5b8181101561187e576118735f82611848565b600181019050611861565b5050565b601f8211156118c3576118948161176e565b61189d84611780565b810160208510156118ac578190505b6118c06118b885611780565b830182611860565b50505b505050565b5f82821c905092915050565b5f6118e35f19846008026118c8565b1980831691505092915050565b5f6118fb83836118d4565b9150826002028217905092915050565b61191482610f52565b67ffffffffffffffff81111561192d5761192c611741565b5b6119378254611481565b611942828285611882565b5f60209050601f831160018114611973575f8415611961578287015190505b61196b85826118f0565b8655506119d2565b601f1984166119818661176e565b5f5b828110156119a857848901518255600182019150602085019450602081019050611983565b868310156119c557848901516119c1601f8916826118d4565b8355505b6001600288020188555050505b505050505050565b828183375f83830152505050565b5f6119f38385610f5c565b9350611a008385846119da565b611a0983610f94565b840190509392505050565b5f604082019050611a275f83018661103b565b8181036020830152611a3a8184866119e8565b9050949350505050565b7f4e487b71000000000000000000000000000000000000000000000000000000005f52603260045260245ffdfea264697066735822122094b27c2ee5994cb99d8ada0b081eaf356f8f207c937058dc3a43cf6ec0d42b2364736f6c63430008140033","linkReferences":{}},"methodIdentifiers":{"AD_DURATION()":"1ce1e3c5","AD_FEE()":"e2f81b84","acceptAd(uint256)":"6caeea7b","adCounter()":"331ce52b","admin()":"f851a440","ads(uint256)":"11a7a4c0","getActiveAds()":"d04fe107","getAdState(uint256)":"065eb3c7","rejectAd(uint256)":"b879da56","submitAd(string)":"c9f21c38"},"id":32}