{"abi":[{"type":"constructor","inputs":[{"name":"_socialCoreAddress","type":"address","internalType":"address"},{"name":"trustedForwarder","type":"address","internalType":"address"}],"stateMutability":"nonpayable"},{"type":"function","name":"approve","inputs":[{"name":"to","type":"address","internalType":"address"},{"name":"tokenId","type":"uint256","internalType":"uint256"}],"outputs":[],"stateMutability":"nonpayable"},{"type":"function","name":"balanceOf","inputs":[{"name":"owner","type":"address","internalType":"address"}],"outputs":[{"name":"","type":"uint256","internalType":"uint256"}],"stateMutability":"view"},{"type":"function","name":"buyNFT","inputs":[{"name":"_tokenId","type":"uint256","internalType":"uint256"}],"outputs":[],"stateMutability":"payable"},{"type":"function","name":"createPostNFT","inputs":[{"name":"_postId","type":"uint256","internalType":"uint256"},{"name":"_listForSale","type":"bool","internalType":"bool"}],"outputs":[],"stateMutability":"nonpayable"},{"type":"function","name":"delistNFT","inputs":[{"name":"_tokenId","type":"uint256","internalType":"uint256"}],"outputs":[],"stateMutability":"nonpayable"},{"type":"function","name":"getApproved","inputs":[{"name":"tokenId","type":"uint256","internalType":"uint256"}],"outputs":[{"name":"","type":"address","internalType":"address"}],"stateMutability":"view"},{"type":"function","name":"isApprovedForAll","inputs":[{"name":"owner","type":"address","internalType":"address"},{"name":"operator","type":"address","internalType":"address"}],"outputs":[{"name":"","type":"bool","internalType":"bool"}],"stateMutability":"view"},{"type":"function","name":"isTrustedForwarder","inputs":[{"name":"forwarder","type":"address","internalType":"address"}],"outputs":[{"name":"","type":"bool","internalType":"bool"}],"stateMutability":"view"},{"type":"function","name":"listNFT","inputs":[{"name":"_tokenId","type":"uint256","internalType":"uint256"}],"outputs":[],"stateMutability":"nonpayable"},{"type":"function","name":"listingPrice","inputs":[],"outputs":[{"name":"","type":"uint256","internalType":"uint256"}],"stateMutability":"view"},{"type":"function","name":"listings","inputs":[{"name":"","type":"uint256","internalType":"uint256"}],"outputs":[{"name":"seller","type":"address","internalType":"address"},{"name":"price","type":"uint256","internalType":"uint256"}],"stateMutability":"view"},{"type":"function","name":"name","inputs":[],"outputs":[{"name":"","type":"string","internalType":"string"}],"stateMutability":"view"},{"type":"function","name":"owner","inputs":[],"outputs":[{"name":"","type":"address","internalType":"address"}],"stateMutability":"view"},{"type":"function","name":"ownerOf","inputs":[{"name":"tokenId","type":"uint256","internalType":"uint256"}],"outputs":[{"name":"","type":"address","internalType":"address"}],"stateMutability":"view"},{"type":"function","name":"postIdToTokenId","inputs":[{"name":"","type":"uint256","internalType":"uint256"}],"outputs":[{"name":"","type":"uint256","internalType":"uint256"}],"stateMutability":"view"},{"type":"function","name":"renounceOwnership","inputs":[],"outputs":[],"stateMutability":"nonpayable"},{"type":"function","name":"safeTransferFrom","inputs":[{"name":"from","type":"address","internalType":"address"},{"name":"to","type":"address","internalType":"address"},{"name":"tokenId","type":"uint256","internalType":"uint256"}],"outputs":[],"stateMutability":"nonpayable"},{"type":"function","name":"safeTransferFrom","inputs":[{"name":"from","type":"address","internalType":"address"},{"name":"to","type":"address","internalType":"address"},{"name":"tokenId","type":"uint256","internalType":"uint256"},{"name":"data","type":"bytes","internalType":"bytes"}],"outputs":[],"stateMutability":"nonpayable"},{"type":"function","name":"setApprovalForAll","inputs":[{"name":"operator","type":"address","internalType":"address"},{"name":"approved","type":"bool","internalType":"bool"}],"outputs":[],"stateMutability":"nonpayable"},{"type":"function","name":"setListingPrice","inputs":[{"name":"_newPrice","type":"uint256","internalType":"uint256"}],"outputs":[],"stateMutability":"nonpayable"},{"type":"function","name":"socialCore","inputs":[],"outputs":[{"name":"","type":"address","internalType":"contract ISocialCore"}],"stateMutability":"view"},{"type":"function","name":"supportsInterface","inputs":[{"name":"interfaceId","type":"bytes4","internalType":"bytes4"}],"outputs":[{"name":"","type":"bool","internalType":"bool"}],"stateMutability":"view"},{"type":"function","name":"symbol","inputs":[],"outputs":[{"name":"","type":"string","internalType":"string"}],"stateMutability":"view"},{"type":"function","name":"tokenIdToPostId","inputs":[{"name":"","type":"uint256","internalType":"uint256"}],"outputs":[{"name":"","type":"uint256","internalType":"uint256"}],"stateMutability":"view"},{"type":"function","name":"tokenURI","inputs":[{"name":"_tokenId","type":"uint256","internalType":"uint256"}],"outputs":[{"name":"","type":"string","internalType":"string"}],"stateMutability":"view"},{"type":"function","name":"transferFrom","inputs":[{"name":"from","type":"address","internalType":"address"},{"name":"to","type":"address","internalType":"address"},{"name":"tokenId","type":"uint256","internalType":"uint256"}],"outputs":[],"stateMutability":"nonpayable"},{"type":"function","name":"transferOwnership","inputs":[{"name":"newOwner","type":"address","internalType":"address"}],"outputs":[],"stateMutability":"nonpayable"},{"type":"function","name":"trustedForwarder","inputs":[],"outputs":[{"name":"","type":"address","internalType":"address"}],"stateMutability":"view"},{"type":"event","name":"Approval","inputs":[{"name":"owner","type":"address","indexed":true,"internalType":"address"},{"name":"approved","type":"address","indexed":true,"internalType":"address"},{"name":"tokenId","type":"uint256","indexed":true,"internalType":"uint256"}],"anonymous":false},{"type":"event","name":"ApprovalForAll","inputs":[{"name":"owner","type":"address","indexed":true,"internalType":"address"},{"name":"operator","type":"address","indexed":true,"internalType":"address"},{"name":"approved","type":"bool","indexed":false,"internalType":"bool"}],"anonymous":false},{"type":"event","name":"NFTDelisted","inputs":[{"name":"tokenId","type":"uint256","indexed":true,"internalType":"uint256"}],"anonymous":false},{"type":"event","name":"NFTListed","inputs":[{"name":"tokenId","type":"uint256","indexed":true,"internalType":"uint256"},{"name":"seller","type":"address","indexed":true,"internalType":"address"},{"name":"price","type":"uint256","indexed":false,"internalType":"uint256"}],"anonymous":false},{"type":"event","name":"NFTMinted","inputs":[{"name":"tokenId","type":"uint256","indexed":true,"internalType":"uint256"},{"name":"postId","type":"uint256","indexed":true,"internalType":"uint256"},{"name":"owner","type":"address","indexed":true,"internalType":"address"}],"anonymous":false},{"type":"event","name":"NFTSold","inputs":[{"name":"tokenId","type":"uint256","indexed":true,"internalType":"uint256"},{"name":"seller","type":"address","indexed":true,"internalType":"address"},{"name":"buyer","type":"address","indexed":true,"internalType":"address"},{"name":"price","type":"uint256","indexed":false,"internalType":"uint256"}],"anonymous":false},{"type":"event","name":"OwnershipTransferred","inputs":[{"name":"previousOwner","type":"address","indexed":true,"internalType":"address"},{"name":"newOwner","type":"address","indexed":true,"internalType":"address"}],"anonymous":false},{"type":"event","name":"Transfer","inputs":[{"name":"from","type":"address","indexed":true,"internalType":"address"},{"name":"to","type":"address","indexed":true,"internalType":"address"},{"name":"tokenId","type":"uint256","indexed":true,"internalType":"uint256"}],"anonymous":false},{"type":"error","name":"ERC721IncorrectOwner","inputs":[{"name":"sender","type":"address","internalType":"address"},{"name":"tokenId","type":"uint256","internalType":"uint256"},{"name":"owner","type":"address","internalType":"address"}]},{"type":"error","name":"ERC721InsufficientApproval","inputs":[{"name":"operator","type":"address","internalType":"address"},{"name":"tokenId","type":"uint256","internalType":"uint256"}]},{"type":"error","name":"ERC721InvalidApprover","inputs":[{"name":"approver","type":"address","internalType":"address"}]},{"type":"error","name":"ERC721InvalidOperator","inputs":[{"name":"operator","type":"address","internalType":"address"}]},{"type":"error","name":"ERC721InvalidOwner","inputs":[{"name":"owner","type":"address","internalType":"address"}]},{"type":"error","name":"ERC721InvalidReceiver","inputs":[{"name":"receiver","type":"address","internalType":"address"}]},{"type":"error","name":"ERC721InvalidSender","inputs":[{"name":"sender","type":"address","internalType":"address"}]},{"type":"error","name":"ERC721NonexistentToken","inputs":[{"name":"tokenId","type":"uint256","internalType":"uint256"}]},{"type":"error","name":"OwnableInvalidOwner","inputs":[{"name":"owner","type":"address","internalType":"address"}]},{"type":"error","name":"OwnableUnauthorizedAccount","inputs":[{"name":"account","type":"address","internalType":"address"}]}],"bytecode":{"object":"0x60c0604052662386f26fc100006008553480156200001b575f80fd5b50604051620047d7380380620047d7833981810160405281019062000041919062000363565b80336040518060400160405280600881526020017f506f7374204e46540000000000000000000000000000000000000000000000008152506040518060400160405280600481526020017f504e465400000000000000000000000000000000000000000000000000000000815250815f9081620000bf91906200060c565b508060019081620000d191906200060c565b5050505f73ffffffffffffffffffffffffffffffffffffffff168173ffffffffffffffffffffffffffffffffffffffff160362000147575f6040517f1e4fbdf70000000000000000000000000000000000000000000000000000000081526004016200013e919062000701565b60405180910390fd5b62000158816200023b60201b60201c565b508073ffffffffffffffffffffffffffffffffffffffff1660808173ffffffffffffffffffffffffffffffffffffffff1681525050505f73ffffffffffffffffffffffffffffffffffffffff168273ffffffffffffffffffffffffffffffffffffffff1603620001ff576040517f08c379a0000000000000000000000000000000000000000000000000000000008152600401620001f690620007a0565b60405180910390fd5b8173ffffffffffffffffffffffffffffffffffffffff1660a08173ffffffffffffffffffffffffffffffffffffffff16815250505050620007c0565b5f60065f9054906101000a900473ffffffffffffffffffffffffffffffffffffffff1690508160065f6101000a81548173ffffffffffffffffffffffffffffffffffffffff021916908373ffffffffffffffffffffffffffffffffffffffff1602179055508173ffffffffffffffffffffffffffffffffffffffff168173ffffffffffffffffffffffffffffffffffffffff167f8be0079c531659141344cd1fd0a4f28419497f9722a3daafe3b4186f6b6457e060405160405180910390a35050565b5f80fd5b5f73ffffffffffffffffffffffffffffffffffffffff82169050919050565b5f6200032d8262000302565b9050919050565b6200033f8162000321565b81146200034a575f80fd5b50565b5f815190506200035d8162000334565b92915050565b5f80604083850312156200037c576200037b620002fe565b5b5f6200038b858286016200034d565b92505060206200039e858286016200034d565b9150509250929050565b5f81519050919050565b7f4e487b71000000000000000000000000000000000000000000000000000000005f52604160045260245ffd5b7f4e487b71000000000000000000000000000000000000000000000000000000005f52602260045260245ffd5b5f60028204905060018216806200042457607f821691505b6020821081036200043a5762000439620003df565b5b50919050565b5f819050815f5260205f209050919050565b5f6020601f8301049050919050565b5f82821b905092915050565b5f600883026200049e7fffffffffffffffffffffffffffffffffffffffffffffffffffffffffffffffff8262000461565b620004aa868362000461565b95508019841693508086168417925050509392505050565b5f819050919050565b5f819050919050565b5f620004f4620004ee620004e884620004c2565b620004cb565b620004c2565b9050919050565b5f819050919050565b6200050f83620004d4565b620005276200051e82620004fb565b8484546200046d565b825550505050565b5f90565b6200053d6200052f565b6200054a81848462000504565b505050565b5b818110156200057157620005655f8262000533565b60018101905062000550565b5050565b601f821115620005c0576200058a8162000440565b620005958462000452565b81016020851015620005a5578190505b620005bd620005b48562000452565b8301826200054f565b50505b505050565b5f82821c905092915050565b5f620005e25f1984600802620005c5565b1980831691505092915050565b5f620005fc8383620005d1565b9150826002028217905092915050565b6200061782620003a8565b67ffffffffffffffff811115620006335762000632620003b2565b5b6200063f82546200040c565b6200064c82828562000575565b5f60209050601f83116001811462000682575f84156200066d578287015190505b620006798582620005ef565b865550620006e8565b601f198416620006928662000440565b5f5b82811015620006bb5784890151825560018201915060208501945060208101905062000694565b86831015620006db5784890151620006d7601f891682620005d1565b8355505b6001600288020188555050505b505050505050565b620006fb8162000321565b82525050565b5f602082019050620007165f830184620006f0565b92915050565b5f82825260208201905092915050565b7f536f6369616c436f726520616464726573732063616e6e6f74206265207a65725f8201527f6f00000000000000000000000000000000000000000000000000000000000000602082015250565b5f620007886021836200071c565b915062000795826200072c565b604082019050919050565b5f6020820190508181035f830152620007b9816200077a565b9050919050565b60805160a051613fe0620007f75f395f818161097301528181610a0a01528181610aec015261134901525f6112120152613fe05ff3fe6080604052600436106101b6575f3560e01c80637c726b69116100eb578063c87b56dd11610089578063daa61b2811610063578063daa61b28146105f4578063de74e57b14610630578063e985e9c51461066d578063f2fde38b146106a9576101b6565b8063c87b56dd14610568578063cb917b9c146105a4578063d076f13f146105cc576101b6565b806395d89b41116100c557806395d89b41146104c4578063a22cb465146104ee578063b88d4fde14610516578063c78f19f91461053e576101b6565b80637c726b69146104485780637da0a877146104705780638da5cb5b1461049a576101b6565b80634c4e8108116101585780636352211e116101325780636352211e1461037e57806363bb5c17146103ba57806370a08231146103f6578063715018a614610432576101b6565b80634c4e8108146102fe57806351ed828814610326578063572b6c0514610342576101b6565b8063095ea7b311610194578063095ea7b31461025c57806323b872dd146102845780633c7a55f5146102ac57806342842e0e146102d6576101b6565b806301ffc9a7146101ba57806306fdde03146101f6578063081812fc14610220575b5f80fd5b3480156101c5575f80fd5b506101e060048036038101906101db9190612c14565b6106d1565b6040516101ed9190612c59565b60405180910390f35b348015610201575f80fd5b5061020a6107b2565b6040516102179190612cfc565b60405180910390f35b34801561022b575f80fd5b5061024660048036038101906102419190612d4f565b610841565b6040516102539190612db9565b60405180910390f35b348015610267575f80fd5b50610282600480360381019061027d9190612dfc565b61085c565b005b34801561028f575f80fd5b506102aa60048036038101906102a59190612e3a565b610872565b005b3480156102b7575f80fd5b506102c0610971565b6040516102cd9190612ee5565b60405180910390f35b3480156102e1575f80fd5b506102fc60048036038101906102f79190612e3a565b610995565b005b348015610309575f80fd5b50610324600480360381019061031f9190612f28565b6109b4565b005b610340600480360381019061033b9190612d4f565b610d9b565b005b34801561034d575f80fd5b5061036860048036038101906103639190612f66565b6110bb565b6040516103759190612c59565b60405180910390f35b348015610389575f80fd5b506103a4600480360381019061039f9190612d4f565b6110cc565b6040516103b19190612db9565b60405180910390f35b3480156103c5575f80fd5b506103e060048036038101906103db9190612d4f565b6110dd565b6040516103ed9190612fa0565b60405180910390f35b348015610401575f80fd5b5061041c60048036038101906104179190612f66565b6110f2565b6040516104299190612fa0565b60405180910390f35b34801561043d575f80fd5b506104466111a8565b005b348015610453575f80fd5b5061046e60048036038101906104699190612d4f565b6111bb565b005b34801561047b575f80fd5b5061048461120f565b6040516104919190612db9565b60405180910390f35b3480156104a5575f80fd5b506104ae611236565b6040516104bb9190612db9565b60405180910390f35b3480156104cf575f80fd5b506104d861125e565b6040516104e59190612cfc565b60405180910390f35b3480156104f9575f80fd5b50610514600480360381019061050f9190612fb9565b6112ee565b005b348015610521575f80fd5b5061053c60048036038101906105379190613123565b611304565b005b348015610549575f80fd5b50610552611329565b60405161055f9190612fa0565b60405180910390f35b348015610573575f80fd5b5061058e60048036038101906105899190612d4f565b61132f565b60405161059b9190612cfc565b60405180910390f35b3480156105af575f80fd5b506105ca60048036038101906105c59190612d4f565b61144f565b005b3480156105d7575f80fd5b506105f260048036038101906105ed9190612d4f565b611566565b005b3480156105ff575f80fd5b5061061a60048036038101906106159190612d4f565b611774565b6040516106279190612fa0565b60405180910390f35b34801561063b575f80fd5b5061065660048036038101906106519190612d4f565b611789565b6040516106649291906131a3565b60405180910390f35b348015610678575f80fd5b50610693600480360381019061068e91906131ca565b6117c8565b6040516106a09190612c59565b60405180910390f35b3480156106b4575f80fd5b506106cf60048036038101906106ca9190612f66565b611856565b005b5f7f80ac58cd000000000000000000000000000000000000000000000000000000007bffffffffffffffffffffffffffffffffffffffffffffffffffffffff1916827bffffffffffffffffffffffffffffffffffffffffffffffffffffffff1916148061079b57507f5b5e139f000000000000000000000000000000000000000000000000000000007bffffffffffffffffffffffffffffffffffffffffffffffffffffffff1916827bffffffffffffffffffffffffffffffffffffffffffffffffffffffff1916145b806107ab57506107aa826118da565b5b9050919050565b60605f80546107c090613235565b80601f01602080910402602001604051908101604052809291908181526020018280546107ec90613235565b80156108375780601f1061080e57610100808354040283529160200191610837565b820191905f5260205f20905b81548152906001019060200180831161081a57829003601f168201915b5050505050905090565b5f61084b82611943565b50610855826119c9565b9050919050565b61086e8282610869611a02565b611a10565b5050565b5f73ffffffffffffffffffffffffffffffffffffffff168273ffffffffffffffffffffffffffffffffffffffff16036108e2575f6040517f64a0ae920000000000000000000000000000000000000000000000000000000081526004016108d99190612db9565b60405180910390fd5b5f6108f583836108f0611a02565b611a22565b90508373ffffffffffffffffffffffffffffffffffffffff168173ffffffffffffffffffffffffffffffffffffffff161461096b578382826040517f64283d7b00000000000000000000000000000000000000000000000000000000815260040161096293929190613265565b60405180910390fd5b50505050565b7f000000000000000000000000000000000000000000000000000000000000000081565b6109af83838360405180602001604052805f815250611304565b505050565b5f60095f8481526020019081526020015f205414610a07576040517f08c379a00000000000000000000000000000000000000000000000000000000081526004016109fe906132e4565b60405180910390fd5b5f7f000000000000000000000000000000000000000000000000000000000000000073ffffffffffffffffffffffffffffffffffffffff16630b1e7f83846040518263ffffffff1660e01b8152600401610a619190612fa0565b5f60405180830381865afa158015610a7b573d5f803e3d5ffd5b505050506040513d5f823e3d601f19601f82011682018060405250810190610aa391906133b4565b505090505f8103610ae9576040517f08c379a0000000000000000000000000000000000000000000000000000000008152600401610ae090613490565b60405180910390fd5b5f7f000000000000000000000000000000000000000000000000000000000000000073ffffffffffffffffffffffffffffffffffffffff16636352211e836040518263ffffffff1660e01b8152600401610b439190612fa0565b602060405180830381865afa158015610b5e573d5f803e3d5ffd5b505050506040513d601f19601f82011682018060405250810190610b8291906134c2565b9050610b8c611a02565b73ffffffffffffffffffffffffffffffffffffffff168173ffffffffffffffffffffffffffffffffffffffff1614610bf9576040517f08c379a0000000000000000000000000000000000000000000000000000000008152600401610bf09061355d565b60405180910390fd5b60075f815480929190610c0b906135a8565b91905055505f6007549050610c27610c21611a02565b82611b56565b8060095f8781526020019081526020015f208190555084600a5f8381526020019081526020015f2081905550610c5b611a02565b73ffffffffffffffffffffffffffffffffffffffff1685827ffca9437e237ca408a74cca23e3078fd1f6c700960dac7f09f8c6cf5177aefe1a60405160405180910390a48315610d94576040518060400160405280610cb8611a02565b73ffffffffffffffffffffffffffffffffffffffff168152602001600854815250600b5f8381526020019081526020015f205f820151815f015f6101000a81548173ffffffffffffffffffffffffffffffffffffffff021916908373ffffffffffffffffffffffffffffffffffffffff16021790555060208201518160010155905050610d43611a02565b73ffffffffffffffffffffffffffffffffffffffff16817f5f9c03de076f5063cd3ebcfe8ef7aa8af378e4b35a83c77ba9777e97083879a2600854604051610d8b9190612fa0565b60405180910390a35b5050505050565b5f600b5f8381526020019081526020015f206040518060400160405290815f82015f9054906101000a900473ffffffffffffffffffffffffffffffffffffffff1673ffffffffffffffffffffffffffffffffffffffff1673ffffffffffffffffffffffffffffffffffffffff16815260200160018201548152505090505f73ffffffffffffffffffffffffffffffffffffffff16815f015173ffffffffffffffffffffffffffffffffffffffff1603610e89576040517f08c379a0000000000000000000000000000000000000000000000000000000008152600401610e8090613639565b60405180910390fd5b80602001513414610ecf576040517f08c379a0000000000000000000000000000000000000000000000000000000008152600401610ec6906136a1565b60405180910390fd5b610ed7611a02565b73ffffffffffffffffffffffffffffffffffffffff16815f015173ffffffffffffffffffffffffffffffffffffffff1603610f47576040517f08c379a0000000000000000000000000000000000000000000000000000000008152600401610f3e90613709565b60405180910390fd5b5f815f01519050600b5f8481526020019081526020015f205f8082015f6101000a81549073ffffffffffffffffffffffffffffffffffffffff0219169055600182015f90555050610fa081610f9a611a02565b85611b73565b5f8173ffffffffffffffffffffffffffffffffffffffff1634604051610fc590613754565b5f6040518083038185875af1925050503d805f8114610fff576040519150601f19603f3d011682016040523d82523d5f602084013e611004565b606091505b5050905080611048576040517f08c379a000000000000000000000000000000000000000000000000000000000815260040161103f906137b2565b60405180910390fd5b611050611a02565b73ffffffffffffffffffffffffffffffffffffffff168273ffffffffffffffffffffffffffffffffffffffff16857f8562eb94748e30bb0071e932744ce902b460c683474fcb3bfd567ffa16b1afb2346040516110ad9190612fa0565b60405180910390a450505050565b5f6110c582611cdb565b9050919050565b5f6110d682611943565b9050919050565b600a602052805f5260405f205f915090505481565b5f8073ffffffffffffffffffffffffffffffffffffffff168273ffffffffffffffffffffffffffffffffffffffff1603611163575f6040517f89c62b6400000000000000000000000000000000000000000000000000000000815260040161115a9190612db9565b60405180910390fd5b60035f8373ffffffffffffffffffffffffffffffffffffffff1673ffffffffffffffffffffffffffffffffffffffff1681526020019081526020015f20549050919050565b6111b0611d19565b6111b95f611da0565b565b6111c3611d19565b5f8111611205576040517f08c379a00000000000000000000000000000000000000000000000000000000081526004016111fc9061381a565b60405180910390fd5b8060088190555050565b5f7f0000000000000000000000000000000000000000000000000000000000000000905090565b5f60065f9054906101000a900473ffffffffffffffffffffffffffffffffffffffff16905090565b60606001805461126d90613235565b80601f016020809104026020016040519081016040528092919081815260200182805461129990613235565b80156112e45780601f106112bb576101008083540402835291602001916112e4565b820191905f5260205f20905b8154815290600101906020018083116112c757829003601f168201915b5050505050905090565b6113006112f9611a02565b8383611e63565b5050565b61130f848484610872565b61132361131a611a02565b85858585611fcc565b50505050565b60085481565b60605f600a5f8481526020019081526020015f205490505f7f000000000000000000000000000000000000000000000000000000000000000073ffffffffffffffffffffffffffffffffffffffff16630b1e7f83836040518263ffffffff1660e01b81526004016113a09190612fa0565b5f60405180830381865afa1580156113ba573d5f803e3d5ffd5b505050506040513d5f823e3d601f19601f820116820180604052508101906113e291906133b4565b509150505f6114236113f386612178565b836113fd86612178565b60405160200161140f939291906139c0565b6040516020818303038152906040526122d1565b9050806040516020016114369190613a66565b6040516020818303038152906040529350505050919050565b611457611a02565b73ffffffffffffffffffffffffffffffffffffffff16600b5f8381526020019081526020015f205f015f9054906101000a900473ffffffffffffffffffffffffffffffffffffffff1673ffffffffffffffffffffffffffffffffffffffff16146114f6576040517f08c379a00000000000000000000000000000000000000000000000000000000081526004016114ed90613ad1565b60405180910390fd5b600b5f8281526020019081526020015f205f8082015f6101000a81549073ffffffffffffffffffffffffffffffffffffffff0219169055600182015f90555050807fc0c55a6edead4433d18cb1e287a0a20a2fa003a6f483bc9823d2e504d70d1c6760405160405180910390a250565b61156e611a02565b73ffffffffffffffffffffffffffffffffffffffff1661158d826110cc565b73ffffffffffffffffffffffffffffffffffffffff16146115e3576040517f08c379a00000000000000000000000000000000000000000000000000000000081526004016115da90613b39565b60405180910390fd5b5f73ffffffffffffffffffffffffffffffffffffffff16600b5f8381526020019081526020015f205f015f9054906101000a900473ffffffffffffffffffffffffffffffffffffffff1673ffffffffffffffffffffffffffffffffffffffff1614611683576040517f08c379a000000000000000000000000000000000000000000000000000000000815260040161167a90613ba1565b60405180910390fd5b6040518060400160405280611696611a02565b73ffffffffffffffffffffffffffffffffffffffff168152602001600854815250600b5f8381526020019081526020015f205f820151815f015f6101000a81548173ffffffffffffffffffffffffffffffffffffffff021916908373ffffffffffffffffffffffffffffffffffffffff16021790555060208201518160010155905050611721611a02565b73ffffffffffffffffffffffffffffffffffffffff16817f5f9c03de076f5063cd3ebcfe8ef7aa8af378e4b35a83c77ba9777e97083879a26008546040516117699190612fa0565b60405180910390a350565b6009602052805f5260405f205f915090505481565b600b602052805f5260405f205f91509050805f015f9054906101000a900473ffffffffffffffffffffffffffffffffffffffff16908060010154905082565b5f60055f8473ffffffffffffffffffffffffffffffffffffffff1673ffffffffffffffffffffffffffffffffffffffff1681526020019081526020015f205f8373ffffffffffffffffffffffffffffffffffffffff1673ffffffffffffffffffffffffffffffffffffffff1681526020019081526020015f205f9054906101000a900460ff16905092915050565b61185e611d19565b5f73ffffffffffffffffffffffffffffffffffffffff168173ffffffffffffffffffffffffffffffffffffffff16036118ce575f6040517f1e4fbdf70000000000000000000000000000000000000000000000000000000081526004016118c59190612db9565b60405180910390fd5b6118d781611da0565b50565b5f7f01ffc9a7000000000000000000000000000000000000000000000000000000007bffffffffffffffffffffffffffffffffffffffffffffffffffffffff1916827bffffffffffffffffffffffffffffffffffffffffffffffffffffffff1916149050919050565b5f8061194e836122fe565b90505f73ffffffffffffffffffffffffffffffffffffffff168173ffffffffffffffffffffffffffffffffffffffff16036119c057826040517f7e2732890000000000000000000000000000000000000000000000000000000081526004016119b79190612fa0565b60405180910390fd5b80915050919050565b5f60045f8381526020019081526020015f205f9054906101000a900473ffffffffffffffffffffffffffffffffffffffff169050919050565b5f611a0b612337565b905090565b611a1d838383600161239f565b505050565b5f80611a2d846122fe565b90505f73ffffffffffffffffffffffffffffffffffffffff168173ffffffffffffffffffffffffffffffffffffffff1614158015611a9757505f73ffffffffffffffffffffffffffffffffffffffff168573ffffffffffffffffffffffffffffffffffffffff1614155b8015611b0157505f73ffffffffffffffffffffffffffffffffffffffff16600b5f8681526020019081526020015f205f015f9054906101000a900473ffffffffffffffffffffffffffffffffffffffff1673ffffffffffffffffffffffffffffffffffffffff1614155b15611b41576040517f08c379a0000000000000000000000000000000000000000000000000000000008152600401611b3890613c2f565b60405180910390fd5b611b4c85858561255e565b9150509392505050565b611b6f828260405180602001604052805f815250612769565b5050565b5f73ffffffffffffffffffffffffffffffffffffffff168273ffffffffffffffffffffffffffffffffffffffff1603611be3575f6040517f64a0ae92000000000000000000000000000000000000000000000000000000008152600401611bda9190612db9565b60405180910390fd5b5f611bef83835f611a22565b90505f73ffffffffffffffffffffffffffffffffffffffff168173ffffffffffffffffffffffffffffffffffffffff1603611c6157816040517f7e273289000000000000000000000000000000000000000000000000000000008152600401611c589190612fa0565b60405180910390fd5b8373ffffffffffffffffffffffffffffffffffffffff168173ffffffffffffffffffffffffffffffffffffffff1614611cd5578382826040517f64283d7b000000000000000000000000000000000000000000000000000000008152600401611ccc93929190613265565b60405180910390fd5b50505050565b5f611ce461120f565b73ffffffffffffffffffffffffffffffffffffffff168273ffffffffffffffffffffffffffffffffffffffff16149050919050565b611d21611a02565b73ffffffffffffffffffffffffffffffffffffffff16611d3f611236565b73ffffffffffffffffffffffffffffffffffffffff1614611d9e57611d62611a02565b6040517f118cdaa7000000000000000000000000000000000000000000000000000000008152600401611d959190612db9565b60405180910390fd5b565b5f60065f9054906101000a900473ffffffffffffffffffffffffffffffffffffffff1690508160065f6101000a81548173ffffffffffffffffffffffffffffffffffffffff021916908373ffffffffffffffffffffffffffffffffffffffff1602179055508173ffffffffffffffffffffffffffffffffffffffff168173ffffffffffffffffffffffffffffffffffffffff167f8be0079c531659141344cd1fd0a4f28419497f9722a3daafe3b4186f6b6457e060405160405180910390a35050565b5f73ffffffffffffffffffffffffffffffffffffffff168273ffffffffffffffffffffffffffffffffffffffff1603611ed357816040517f5b08ba18000000000000000000000000000000000000000000000000000000008152600401611eca9190612db9565b60405180910390fd5b8060055f8573ffffffffffffffffffffffffffffffffffffffff1673ffffffffffffffffffffffffffffffffffffffff1681526020019081526020015f205f8473ffffffffffffffffffffffffffffffffffffffff1673ffffffffffffffffffffffffffffffffffffffff1681526020019081526020015f205f6101000a81548160ff0219169083151502179055508173ffffffffffffffffffffffffffffffffffffffff168373ffffffffffffffffffffffffffffffffffffffff167f17307eab39ab6107e8899845ad3d59bd9653f200f220920489ca2b5937696c3183604051611fbf9190612c59565b60405180910390a3505050565b5f8373ffffffffffffffffffffffffffffffffffffffff163b1115612171578273ffffffffffffffffffffffffffffffffffffffff1663150b7a02868685856040518563ffffffff1660e01b815260040161202a9493929190613c9f565b6020604051808303815f875af192505050801561206557506040513d601f19601f820116820180604052508101906120629190613cfd565b60015b6120e6573d805f8114612093576040519150601f19603f3d011682016040523d82523d5f602084013e612098565b606091505b505f8151036120de57836040517f64a0ae920000000000000000000000000000000000000000000000000000000081526004016120d59190612db9565b60405180910390fd5b805160208201fd5b63150b7a0260e01b7bffffffffffffffffffffffffffffffffffffffffffffffffffffffff1916817bffffffffffffffffffffffffffffffffffffffffffffffffffffffff19161461216f57836040517f64a0ae920000000000000000000000000000000000000000000000000000000081526004016121669190612db9565b60405180910390fd5b505b5050505050565b60605f82036121be576040518060400160405280600181526020017f300000000000000000000000000000000000000000000000000000000000000081525090506122cc565b5f8290505f5b5f82146121ed5780806121d6906135a8565b915050600a826121e69190613d55565b91506121c4565b5f8167ffffffffffffffff81111561220857612207612fff565b5b6040519080825280601f01601f19166020018201604052801561223a5781602001600182028036833780820191505090505b5090505b5f85146122c5576001826122529190613d85565b9150600a856122619190613db8565b603061226d9190613de8565b60f81b81838151811061228357612282613e1b565b5b60200101907effffffffffffffffffffffffffffffffffffffffffffffffffffffffffffff191690815f1a905350600a856122be9190613d55565b945061223e565b8093505050505b919050565b60606122f782604051806060016040528060408152602001613f6b60409139600161278c565b9050919050565b5f60025f8381526020019081526020015f205f9054906101000a900473ffffffffffffffffffffffffffffffffffffffff169050919050565b5f805f36905090505f61234861291b565b905080821015801561235f575061235e336110bb565b5b1561238f575f3682840390809261237893929190613e50565b906123839190613ecb565b60601c9250505061239c565b612397612929565b925050505b90565b80806123d757505f73ffffffffffffffffffffffffffffffffffffffff168273ffffffffffffffffffffffffffffffffffffffff1614155b15612509575f6123e684611943565b90505f73ffffffffffffffffffffffffffffffffffffffff168373ffffffffffffffffffffffffffffffffffffffff161415801561245057508273ffffffffffffffffffffffffffffffffffffffff168173ffffffffffffffffffffffffffffffffffffffff1614155b8015612463575061246181846117c8565b155b156124a557826040517fa9fbf51f00000000000000000000000000000000000000000000000000000000815260040161249c9190612db9565b60405180910390fd5b811561250757838573ffffffffffffffffffffffffffffffffffffffff168273ffffffffffffffffffffffffffffffffffffffff167f8c5be1e5ebec7d5bd14f71427d1e84f3dd0314c0f7b2291e5b200ac8c7c3b92560405160405180910390a45b505b8360045f8581526020019081526020015f205f6101000a81548173ffffffffffffffffffffffffffffffffffffffff021916908373ffffffffffffffffffffffffffffffffffffffff16021790555050505050565b5f80612569846122fe565b90505f73ffffffffffffffffffffffffffffffffffffffff168373ffffffffffffffffffffffffffffffffffffffff16146125aa576125a9818486612930565b5b5f73ffffffffffffffffffffffffffffffffffffffff168173ffffffffffffffffffffffffffffffffffffffff1614612635576125e95f855f8061239f565b600160035f8373ffffffffffffffffffffffffffffffffffffffff1673ffffffffffffffffffffffffffffffffffffffff1681526020019081526020015f205f82825403925050819055505b5f73ffffffffffffffffffffffffffffffffffffffff168573ffffffffffffffffffffffffffffffffffffffff16146126b457600160035f8773ffffffffffffffffffffffffffffffffffffffff1673ffffffffffffffffffffffffffffffffffffffff1681526020019081526020015f205f82825401925050819055505b8460025f8681526020019081526020015f205f6101000a81548173ffffffffffffffffffffffffffffffffffffffff021916908373ffffffffffffffffffffffffffffffffffffffff160217905550838573ffffffffffffffffffffffffffffffffffffffff168273ffffffffffffffffffffffffffffffffffffffff167fddf252ad1be2c89b69c2b068fc378daa952ba7f163c4a11628f55a4df523b3ef60405160405180910390a4809150509392505050565b61277383836129f3565b61278761277e611a02565b5f858585611fcc565b505050565b60605f8451036127ac5760405180602001604052805f8152509050612914565b5f826127dd5760036002865160046127c49190613f29565b6127ce9190613de8565b6127d89190613d55565b612804565b6003600286516127ed9190613de8565b6127f79190613d55565b60046128039190613f29565b5b90505f8167ffffffffffffffff81111561282157612820612fff565b5b6040519080825280601f01601f1916602001820160405280156128535781602001600182028036833780820191505090505b509050600185016020820187885189016020810180515f82525b828410156128c8576003840193508351603f8160121c168701518653600186019550603f81600c1c168701518653600186019550603f8160061c168701518653600186019550603f811687015186536001860195505061286d565b80825289156129085760038c5106600181146128eb57600281146128fe57612906565b603d6001870353603d6002870353612906565b603d60018703535b505b50505050505080925050505b9392505050565b5f612924612ae6565b905090565b5f33905090565b61293b838383612aee565b6129ee575f73ffffffffffffffffffffffffffffffffffffffff168373ffffffffffffffffffffffffffffffffffffffff16036129af57806040517f7e2732890000000000000000000000000000000000000000000000000000000081526004016129a69190612fa0565b60405180910390fd5b81816040517f177e802f0000000000000000000000000000000000000000000000000000000081526004016129e59291906131a3565b60405180910390fd5b505050565b5f73ffffffffffffffffffffffffffffffffffffffff168273ffffffffffffffffffffffffffffffffffffffff1603612a63575f6040517f64a0ae92000000000000000000000000000000000000000000000000000000008152600401612a5a9190612db9565b60405180910390fd5b5f612a6f83835f611a22565b90505f73ffffffffffffffffffffffffffffffffffffffff168173ffffffffffffffffffffffffffffffffffffffff1614612ae1575f6040517f73c6ac6e000000000000000000000000000000000000000000000000000000008152600401612ad89190612db9565b60405180910390fd5b505050565b5f6014905090565b5f8073ffffffffffffffffffffffffffffffffffffffff168373ffffffffffffffffffffffffffffffffffffffff1614158015612ba557508273ffffffffffffffffffffffffffffffffffffffff168473ffffffffffffffffffffffffffffffffffffffff161480612b665750612b6584846117c8565b5b80612ba457508273ffffffffffffffffffffffffffffffffffffffff16612b8c836119c9565b73ffffffffffffffffffffffffffffffffffffffff16145b5b90509392505050565b5f604051905090565b5f80fd5b5f80fd5b5f7fffffffff0000000000000000000000000000000000000000000000000000000082169050919050565b612bf381612bbf565b8114612bfd575f80fd5b50565b5f81359050612c0e81612bea565b92915050565b5f60208284031215612c2957612c28612bb7565b5b5f612c3684828501612c00565b91505092915050565b5f8115159050919050565b612c5381612c3f565b82525050565b5f602082019050612c6c5f830184612c4a565b92915050565b5f81519050919050565b5f82825260208201905092915050565b5f5b83811015612ca9578082015181840152602081019050612c8e565b5f8484015250505050565b5f601f19601f8301169050919050565b5f612cce82612c72565b612cd88185612c7c565b9350612ce8818560208601612c8c565b612cf181612cb4565b840191505092915050565b5f6020820190508181035f830152612d148184612cc4565b905092915050565b5f819050919050565b612d2e81612d1c565b8114612d38575f80fd5b50565b5f81359050612d4981612d25565b92915050565b5f60208284031215612d6457612d63612bb7565b5b5f612d7184828501612d3b565b91505092915050565b5f73ffffffffffffffffffffffffffffffffffffffff82169050919050565b5f612da382612d7a565b9050919050565b612db381612d99565b82525050565b5f602082019050612dcc5f830184612daa565b92915050565b612ddb81612d99565b8114612de5575f80fd5b50565b5f81359050612df681612dd2565b92915050565b5f8060408385031215612e1257612e11612bb7565b5b5f612e1f85828601612de8565b9250506020612e3085828601612d3b565b9150509250929050565b5f805f60608486031215612e5157612e50612bb7565b5b5f612e5e86828701612de8565b9350506020612e6f86828701612de8565b9250506040612e8086828701612d3b565b9150509250925092565b5f819050919050565b5f612ead612ea8612ea384612d7a565b612e8a565b612d7a565b9050919050565b5f612ebe82612e93565b9050919050565b5f612ecf82612eb4565b9050919050565b612edf81612ec5565b82525050565b5f602082019050612ef85f830184612ed6565b92915050565b612f0781612c3f565b8114612f11575f80fd5b50565b5f81359050612f2281612efe565b92915050565b5f8060408385031215612f3e57612f3d612bb7565b5b5f612f4b85828601612d3b565b9250506020612f5c85828601612f14565b9150509250929050565b5f60208284031215612f7b57612f7a612bb7565b5b5f612f8884828501612de8565b91505092915050565b612f9a81612d1c565b82525050565b5f602082019050612fb35f830184612f91565b92915050565b5f8060408385031215612fcf57612fce612bb7565b5b5f612fdc85828601612de8565b9250506020612fed85828601612f14565b9150509250929050565b5f80fd5b5f80fd5b7f4e487b71000000000000000000000000000000000000000000000000000000005f52604160045260245ffd5b61303582612cb4565b810181811067ffffffffffffffff8211171561305457613053612fff565b5b80604052505050565b5f613066612bae565b9050613072828261302c565b919050565b5f67ffffffffffffffff82111561309157613090612fff565b5b61309a82612cb4565b9050602081019050919050565b828183375f83830152505050565b5f6130c76130c284613077565b61305d565b9050828152602081018484840111156130e3576130e2612ffb565b5b6130ee8482856130a7565b509392505050565b5f82601f83011261310a57613109612ff7565b5b813561311a8482602086016130b5565b91505092915050565b5f805f806080858703121561313b5761313a612bb7565b5b5f61314887828801612de8565b945050602061315987828801612de8565b935050604061316a87828801612d3b565b925050606085013567ffffffffffffffff81111561318b5761318a612bbb565b5b613197878288016130f6565b91505092959194509250565b5f6040820190506131b65f830185612daa565b6131c36020830184612f91565b9392505050565b5f80604083850312156131e0576131df612bb7565b5b5f6131ed85828601612de8565b92505060206131fe85828601612de8565b9150509250929050565b7f4e487b71000000000000000000000000000000000000000000000000000000005f52602260045260245ffd5b5f600282049050600182168061324c57607f821691505b60208210810361325f5761325e613208565b5b50919050565b5f6060820190506132785f830186612daa565b6132856020830185612f91565b6132926040830184612daa565b949350505050565b7f506f73743a20416c7265616479206d696e74656420617320616e204e465400005f82015250565b5f6132ce601e83612c7c565b91506132d98261329a565b602082019050919050565b5f6020820190508181035f8301526132fb816132c2565b9050919050565b5f8151905061331081612d25565b92915050565b5f67ffffffffffffffff8211156133305761332f612fff565b5b61333982612cb4565b9050602081019050919050565b5f61335861335384613316565b61305d565b90508281526020810184848401111561337457613373612ffb565b5b61337f848285612c8c565b509392505050565b5f82601f83011261339b5761339a612ff7565b5b81516133ab848260208601613346565b91505092915050565b5f805f606084860312156133cb576133ca612bb7565b5b5f6133d886828701613302565b935050602084015167ffffffffffffffff8111156133f9576133f8612bbb565b5b61340586828701613387565b925050604061341686828701613302565b9150509250925092565b7f506f73743a20446f6573206e6f7420657869737420696e20536f6369616c436f5f8201527f7265000000000000000000000000000000000000000000000000000000000000602082015250565b5f61347a602283612c7c565b915061348582613420565b604082019050919050565b5f6020820190508181035f8301526134a78161346e565b9050919050565b5f815190506134bc81612dd2565b92915050565b5f602082840312156134d7576134d6612bb7565b5b5f6134e4848285016134ae565b91505092915050565b7f417574686f72697a6174696f6e3a204f6e6c792074686520706f7374206f776e5f8201527f65722063616e206d696e74000000000000000000000000000000000000000000602082015250565b5f613547602b83612c7c565b9150613552826134ed565b604082019050919050565b5f6020820190508181035f8301526135748161353b565b9050919050565b7f4e487b71000000000000000000000000000000000000000000000000000000005f52601160045260245ffd5b5f6135b282612d1c565b91507fffffffffffffffffffffffffffffffffffffffffffffffffffffffffffffffff82036135e4576135e361357b565b5b600182019050919050565b7f4d61726b6574706c6163653a204e6f7420666f722073616c65000000000000005f82015250565b5f613623601983612c7c565b915061362e826135ef565b602082019050919050565b5f6020820190508181035f83015261365081613617565b9050919050565b7f5061796d656e743a20496e636f72726563742070726963652073656e740000005f82015250565b5f61368b601d83612c7c565b915061369682613657565b602082019050919050565b5f6020820190508181035f8301526136b88161367f565b9050919050565b7f416374696f6e3a2043616e6e6f742062757920796f7572206f776e204e4654005f82015250565b5f6136f3601f83612c7c565b91506136fe826136bf565b602082019050919050565b5f6020820190508181035f830152613720816136e7565b9050919050565b5f81905092915050565b50565b5f61373f5f83613727565b915061374a82613731565b5f82019050919050565b5f61375e82613734565b9150819050919050565b7f5061796d656e743a205472616e73666572206661696c656400000000000000005f82015250565b5f61379c601883612c7c565b91506137a782613768565b602082019050919050565b5f6020820190508181035f8301526137c981613790565b9050919050565b7f5072696365206d7573742062652067726561746572207468616e207a65726f005f82015250565b5f613804601f83612c7c565b915061380f826137d0565b602082019050919050565b5f6020820190508181035f830152613831816137f8565b9050919050565b5f81905092915050565b7f7b226e616d65223a2022506f7374204e465420230000000000000000000000005f82015250565b5f613876601483613838565b915061388182613842565b601482019050919050565b5f61389682612c72565b6138a08185613838565b93506138b0818560208601612c8c565b80840191505092915050565b7f222c20226465736372697074696f6e223a2022000000000000000000000000005f82015250565b5f6138f0601383613838565b91506138fb826138bc565b601382019050919050565b7f222c202261747472696275746573223a205b7b2274726169745f74797065223a5f8201527f20224f726967696e616c20506f7374204944222c202276616c7565223a200000602082015250565b5f613960603e83613838565b915061396b82613906565b603e82019050919050565b7f7d5d7d00000000000000000000000000000000000000000000000000000000005f82015250565b5f6139aa600383613838565b91506139b582613976565b600382019050919050565b5f6139ca8261386a565b91506139d6828661388c565b91506139e1826138e4565b91506139ed828561388c565b91506139f882613954565b9150613a04828461388c565b9150613a0f8261399e565b9150819050949350505050565b7f646174613a6170706c69636174696f6e2f6a736f6e3b6261736536342c0000005f82015250565b5f613a50601d83613838565b9150613a5b82613a1c565b601d82019050919050565b5f613a7082613a44565b9150613a7c828461388c565b915081905092915050565b7f417574686f72697a6174696f6e3a204e6f74207468652073656c6c65720000005f82015250565b5f613abb601d83612c7c565b9150613ac682613a87565b602082019050919050565b5f6020820190508181035f830152613ae881613aaf565b9050919050565b7f417574686f72697a6174696f6e3a204e6f7420746865206f776e6572000000005f82015250565b5f613b23601c83612c7c565b9150613b2e82613aef565b602082019050919050565b5f6020820190508181035f830152613b5081613b17565b9050919050565b7f4d61726b6574706c6163653a20416c7265616479206c697374656400000000005f82015250565b5f613b8b601b83612c7c565b9150613b9682613b57565b602082019050919050565b5f6020820190508181035f830152613bb881613b7f565b9050919050565b7f4e4654206973206c697374656420666f722073616c6520616e642063616e6e6f5f8201527f74206265207472616e7366657272656400000000000000000000000000000000602082015250565b5f613c19603083612c7c565b9150613c2482613bbf565b604082019050919050565b5f6020820190508181035f830152613c4681613c0d565b9050919050565b5f81519050919050565b5f82825260208201905092915050565b5f613c7182613c4d565b613c7b8185613c57565b9350613c8b818560208601612c8c565b613c9481612cb4565b840191505092915050565b5f608082019050613cb25f830187612daa565b613cbf6020830186612daa565b613ccc6040830185612f91565b8181036060830152613cde8184613c67565b905095945050505050565b5f81519050613cf781612bea565b92915050565b5f60208284031215613d1257613d11612bb7565b5b5f613d1f84828501613ce9565b91505092915050565b7f4e487b71000000000000000000000000000000000000000000000000000000005f52601260045260245ffd5b5f613d5f82612d1c565b9150613d6a83612d1c565b925082613d7a57613d79613d28565b5b828204905092915050565b5f613d8f82612d1c565b9150613d9a83612d1c565b9250828203905081811115613db257613db161357b565b5b92915050565b5f613dc282612d1c565b9150613dcd83612d1c565b925082613ddd57613ddc613d28565b5b828206905092915050565b5f613df282612d1c565b9150613dfd83612d1c565b9250828201905080821115613e1557613e1461357b565b5b92915050565b7f4e487b71000000000000000000000000000000000000000000000000000000005f52603260045260245ffd5b5f80fd5b5f80fd5b5f8085851115613e6357613e62613e48565b5b83861115613e7457613e73613e4c565b5b6001850283019150848603905094509492505050565b5f82905092915050565b5f7fffffffffffffffffffffffffffffffffffffffff00000000000000000000000082169050919050565b5f82821b905092915050565b5f613ed68383613e8a565b82613ee18135613e94565b92506014821015613f2157613f1c7fffffffffffffffffffffffffffffffffffffffff00000000000000000000000083601403600802613ebf565b831692505b505092915050565b5f613f3382612d1c565b9150613f3e83612d1c565b9250828202613f4c81612d1c565b91508282048414831517613f6357613f6261357b565b5b509291505056fe4142434445464748494a4b4c4d4e4f505152535455565758595a6162636465666768696a6b6c6d6e6f707172737475767778797a303132333435363738392b2fa264697066735822122007bcd00ee0aa74de79afcd8d98a4fe978387398bef98f71cec996b4f67fb6de964736f6c63430008140033","linkReferences":{}},"methodIdentifiers":{"approve(address,uint256)":"095ea7b3","balanceOf(address)":"70a08231","buyNFT(uint256)":"51ed8288","createPostNFT(uint256,bool)":"4c4e8108","delistNFT(uint256)":"cb917b9c","getApproved(uint256)":"081812fc","isApprovedForAll(address,address)":"e985e9c5","isTrustedForwarder(address)":"572b6c05","listNFT(uint256)":"d076f13f","listingPrice()":"c78f19f9","listings(uint256)":"de74e57b","name()":"06fdde03","owner()":"8da5cb5b","ownerOf(uint256)":"6352211e","postIdToTokenId(uint256)":"daa61b28","renounceOwnership()":"715018a6","safeTransferFrom(address,address,uint256)":"42842e0e","safeTransferFrom(address,address,uint256,bytes)":"b88d4fde","setApprovalForAll(address,bool)":"a22cb465","setListingPrice(uint256)":"7c726b69","socialCore()":"3c7a55f5","supportsInterface(bytes4)":"01ffc9a7","symbol()":"95d89b41","tokenIdToPostId(uint256)":"63bb5c17","tokenURI(uint256)":"c87b56dd","transferFrom(address,address,uint256)":"23b872dd","transferOwnership(address)":"f2fde38b","trustedForwarder()":"7da0a877"},"id":17}