{"abi":[{"type":"constructor","inputs":[{"name":"trustedForwarder","type":"address","internalType":"address"}],"stateMutability":"nonpayable"},{"type":"function","name":"approve","inputs":[{"name":"to","type":"address","internalType":"address"},{"name":"tokenId","type":"uint256","internalType":"uint256"}],"outputs":[],"stateMutability":"nonpayable"},{"type":"function","name":"balanceOf","inputs":[{"name":"owner","type":"address","internalType":"address"}],"outputs":[{"name":"","type":"uint256","internalType":"uint256"}],"stateMutability":"view"},{"type":"function","name":"blueMarkBalance","inputs":[],"outputs":[{"name":"","type":"uint256","internalType":"uint256"}],"stateMutability":"view"},{"type":"function","name":"blueMarkPrice","inputs":[],"outputs":[{"name":"","type":"uint256","internalType":"uint256"}],"stateMutability":"view"},{"type":"function","name":"buyBlueMark","inputs":[],"outputs":[],"stateMutability":"payable"},{"type":"function","name":"claimBlueMarkFees","inputs":[],"outputs":[],"stateMutability":"nonpayable"},{"type":"function","name":"comments","inputs":[{"name":"","type":"uint256","internalType":"uint256"}],"outputs":[{"name":"owner","type":"address","internalType":"address"},{"name":"content","type":"string","internalType":"string"}],"stateMutability":"view"},{"type":"function","name":"commentsByPost","inputs":[{"name":"","type":"uint256","internalType":"uint256"},{"name":"","type":"uint256","internalType":"uint256"}],"outputs":[{"name":"","type":"uint256","internalType":"uint256"}],"stateMutability":"view"},{"type":"function","name":"createComment","inputs":[{"name":"postId","type":"uint256","internalType":"uint256"},{"name":"content","type":"string","internalType":"string"}],"outputs":[{"name":"","type":"uint256","internalType":"uint256"}],"stateMutability":"nonpayable"},{"type":"function","name":"createPost","inputs":[{"name":"content","type":"string","internalType":"string"}],"outputs":[{"name":"","type":"uint256","internalType":"uint256"}],"stateMutability":"nonpayable"},{"type":"function","name":"createProfile","inputs":[{"name":"username","type":"string","internalType":"string"}],"outputs":[{"name":"","type":"uint256","internalType":"uint256"}],"stateMutability":"nonpayable"},{"type":"function","name":"getApproved","inputs":[{"name":"tokenId","type":"uint256","internalType":"uint256"}],"outputs":[{"name":"","type":"address","internalType":"address"}],"stateMutability":"view"},{"type":"function","name":"getCommentIdsByPost","inputs":[{"name":"postId","type":"uint256","internalType":"uint256"}],"outputs":[{"name":"","type":"uint256[]","internalType":"uint256[]"}],"stateMutability":"view"},{"type":"function","name":"getPostComments","inputs":[{"name":"postId","type":"uint256","internalType":"uint256"}],"outputs":[{"name":"","type":"address[]","internalType":"address[]"},{"name":"","type":"string[]","internalType":"string[]"}],"stateMutability":"view"},{"type":"function","name":"getPostLikes","inputs":[{"name":"postId","type":"uint256","internalType":"uint256"}],"outputs":[{"name":"","type":"uint256","internalType":"uint256"}],"stateMutability":"view"},{"type":"function","name":"getProfilePosts","inputs":[{"name":"user","type":"address","internalType":"address"}],"outputs":[{"name":"","type":"string[]","internalType":"string[]"}],"stateMutability":"view"},{"type":"function","name":"hasBlueMark","inputs":[{"name":"","type":"uint256","internalType":"uint256"}],"outputs":[{"name":"","type":"bool","internalType":"bool"}],"stateMutability":"view"},{"type":"function","name":"hasProfileBlueMark","inputs":[{"name":"profile","type":"address","internalType":"address"}],"outputs":[{"name":"","type":"bool","internalType":"bool"}],"stateMutability":"view"},{"type":"function","name":"isApprovedForAll","inputs":[{"name":"owner","type":"address","internalType":"address"},{"name":"operator","type":"address","internalType":"address"}],"outputs":[{"name":"","type":"bool","internalType":"bool"}],"stateMutability":"view"},{"type":"function","name":"isTrustedForwarder","inputs":[{"name":"forwarder","type":"address","internalType":"address"}],"outputs":[{"name":"","type":"bool","internalType":"bool"}],"stateMutability":"view"},{"type":"function","name":"name","inputs":[],"outputs":[{"name":"","type":"string","internalType":"string"}],"stateMutability":"view"},{"type":"function","name":"nextCommentId","inputs":[],"outputs":[{"name":"","type":"uint256","internalType":"uint256"}],"stateMutability":"view"},{"type":"function","name":"nextPostId","inputs":[],"outputs":[{"name":"","type":"uint256","internalType":"uint256"}],"stateMutability":"view"},{"type":"function","name":"nextPostNFTId","inputs":[],"outputs":[{"name":"","type":"uint256","internalType":"uint256"}],"stateMutability":"view"},{"type":"function","name":"nextProfileId","inputs":[],"outputs":[{"name":"","type":"uint256","internalType":"uint256"}],"stateMutability":"view"},{"type":"function","name":"nftToPost","inputs":[{"name":"","type":"uint256","internalType":"uint256"}],"outputs":[{"name":"","type":"uint256","internalType":"uint256"}],"stateMutability":"view"},{"type":"function","name":"owner","inputs":[],"outputs":[{"name":"","type":"address","internalType":"address"}],"stateMutability":"view"},{"type":"function","name":"ownerOf","inputs":[{"name":"tokenId","type":"uint256","internalType":"uint256"}],"outputs":[{"name":"","type":"address","internalType":"address"}],"stateMutability":"view"},{"type":"function","name":"ownerToProfile","inputs":[{"name":"","type":"address","internalType":"address"}],"outputs":[{"name":"","type":"uint256","internalType":"uint256"}],"stateMutability":"view"},{"type":"function","name":"postLikes","inputs":[{"name":"","type":"uint256","internalType":"uint256"},{"name":"","type":"uint256","internalType":"uint256"}],"outputs":[{"name":"","type":"bool","internalType":"bool"}],"stateMutability":"view"},{"type":"function","name":"postToNFT","inputs":[{"name":"","type":"uint256","internalType":"uint256"}],"outputs":[{"name":"","type":"uint256","internalType":"uint256"}],"stateMutability":"view"},{"type":"function","name":"posts","inputs":[{"name":"","type":"uint256","internalType":"uint256"}],"outputs":[{"name":"profileId","type":"uint256","internalType":"uint256"},{"name":"content","type":"string","internalType":"string"},{"name":"likeCount","type":"uint256","internalType":"uint256"}],"stateMutability":"view"},{"type":"function","name":"postsByProfile","inputs":[{"name":"","type":"uint256","internalType":"uint256"},{"name":"","type":"uint256","internalType":"uint256"}],"outputs":[{"name":"","type":"uint256","internalType":"uint256"}],"stateMutability":"view"},{"type":"function","name":"profileUsernames","inputs":[{"name":"","type":"address","internalType":"address"}],"outputs":[{"name":"","type":"string","internalType":"string"}],"stateMutability":"view"},{"type":"function","name":"renounceOwnership","inputs":[],"outputs":[],"stateMutability":"nonpayable"},{"type":"function","name":"safeTransferFrom","inputs":[{"name":"from","type":"address","internalType":"address"},{"name":"to","type":"address","internalType":"address"},{"name":"tokenId","type":"uint256","internalType":"uint256"}],"outputs":[],"stateMutability":"nonpayable"},{"type":"function","name":"safeTransferFrom","inputs":[{"name":"from","type":"address","internalType":"address"},{"name":"to","type":"address","internalType":"address"},{"name":"tokenId","type":"uint256","internalType":"uint256"},{"name":"data","type":"bytes","internalType":"bytes"}],"outputs":[],"stateMutability":"nonpayable"},{"type":"function","name":"setApprovalForAll","inputs":[{"name":"operator","type":"address","internalType":"address"},{"name":"approved","type":"bool","internalType":"bool"}],"outputs":[],"stateMutability":"nonpayable"},{"type":"function","name":"supportsInterface","inputs":[{"name":"interfaceId","type":"bytes4","internalType":"bytes4"}],"outputs":[{"name":"","type":"bool","internalType":"bool"}],"stateMutability":"view"},{"type":"function","name":"symbol","inputs":[],"outputs":[{"name":"","type":"string","internalType":"string"}],"stateMutability":"view"},{"type":"function","name":"toggleLike","inputs":[{"name":"postId","type":"uint256","internalType":"uint256"}],"outputs":[],"stateMutability":"nonpayable"},{"type":"function","name":"tokenURI","inputs":[{"name":"tokenId","type":"uint256","internalType":"uint256"}],"outputs":[{"name":"","type":"string","internalType":"string"}],"stateMutability":"view"},{"type":"function","name":"transferFrom","inputs":[{"name":"from","type":"address","internalType":"address"},{"name":"to","type":"address","internalType":"address"},{"name":"tokenId","type":"uint256","internalType":"uint256"}],"outputs":[],"stateMutability":"nonpayable"},{"type":"function","name":"transferOwnership","inputs":[{"name":"newOwner","type":"address","internalType":"address"}],"outputs":[],"stateMutability":"nonpayable"},{"type":"function","name":"trustedForwarder","inputs":[],"outputs":[{"name":"","type":"address","internalType":"address"}],"stateMutability":"view"},{"type":"event","name":"Approval","inputs":[{"name":"owner","type":"address","indexed":true,"internalType":"address"},{"name":"approved","type":"address","indexed":true,"internalType":"address"},{"name":"tokenId","type":"uint256","indexed":true,"internalType":"uint256"}],"anonymous":false},{"type":"event","name":"ApprovalForAll","inputs":[{"name":"owner","type":"address","indexed":true,"internalType":"address"},{"name":"operator","type":"address","indexed":true,"internalType":"address"},{"name":"approved","type":"bool","indexed":false,"internalType":"bool"}],"anonymous":false},{"type":"event","name":"BlueMarkFeesClaimed","inputs":[{"name":"owner","type":"address","indexed":true,"internalType":"address"},{"name":"amount","type":"uint256","indexed":false,"internalType":"uint256"}],"anonymous":false},{"type":"event","name":"BlueMarkPurchased","inputs":[{"name":"profileId","type":"uint256","indexed":true,"internalType":"uint256"},{"name":"owner","type":"address","indexed":true,"internalType":"address"},{"name":"amount","type":"uint256","indexed":false,"internalType":"uint256"}],"anonymous":false},{"type":"event","name":"CommentCreated","inputs":[{"name":"postId","type":"uint256","indexed":true,"internalType":"uint256"},{"name":"commentId","type":"uint256","indexed":true,"internalType":"uint256"},{"name":"owner","type":"address","indexed":true,"internalType":"address"},{"name":"content","type":"string","indexed":false,"internalType":"string"}],"anonymous":false},{"type":"event","name":"OwnershipTransferred","inputs":[{"name":"previousOwner","type":"address","indexed":true,"internalType":"address"},{"name":"newOwner","type":"address","indexed":true,"internalType":"address"}],"anonymous":false},{"type":"event","name":"PostCreated","inputs":[{"name":"profileId","type":"uint256","indexed":true,"internalType":"uint256"},{"name":"postId","type":"uint256","indexed":true,"internalType":"uint256"},{"name":"content","type":"string","indexed":false,"internalType":"string"}],"anonymous":false},{"type":"event","name":"PostLiked","inputs":[{"name":"postId","type":"uint256","indexed":true,"internalType":"uint256"},{"name":"profileId","type":"uint256","indexed":true,"internalType":"uint256"},{"name":"liked","type":"bool","indexed":false,"internalType":"bool"}],"anonymous":false},{"type":"event","name":"PostMintedAsNFT","inputs":[{"name":"profileId","type":"uint256","indexed":true,"internalType":"uint256"},{"name":"postId","type":"uint256","indexed":true,"internalType":"uint256"},{"name":"nftId","type":"uint256","indexed":true,"internalType":"uint256"}],"anonymous":false},{"type":"event","name":"ProfileCreated","inputs":[{"name":"owner","type":"address","indexed":true,"internalType":"address"},{"name":"profileId","type":"uint256","indexed":true,"internalType":"uint256"},{"name":"username","type":"string","indexed":false,"internalType":"string"}],"anonymous":false},{"type":"event","name":"Transfer","inputs":[{"name":"from","type":"address","indexed":true,"internalType":"address"},{"name":"to","type":"address","indexed":true,"internalType":"address"},{"name":"tokenId","type":"uint256","indexed":true,"internalType":"uint256"}],"anonymous":false},{"type":"error","name":"ERC721IncorrectOwner","inputs":[{"name":"sender","type":"address","internalType":"address"},{"name":"tokenId","type":"uint256","internalType":"uint256"},{"name":"owner","type":"address","internalType":"address"}]},{"type":"error","name":"ERC721InsufficientApproval","inputs":[{"name":"operator","type":"address","internalType":"address"},{"name":"tokenId","type":"uint256","internalType":"uint256"}]},{"type":"error","name":"ERC721InvalidApprover","inputs":[{"name":"approver","type":"address","internalType":"address"}]},{"type":"error","name":"ERC721InvalidOperator","inputs":[{"name":"operator","type":"address","internalType":"address"}]},{"type":"error","name":"ERC721InvalidOwner","inputs":[{"name":"owner","type":"address","internalType":"address"}]},{"type":"error","name":"ERC721InvalidReceiver","inputs":[{"name":"receiver","type":"address","internalType":"address"}]},{"type":"error","name":"ERC721InvalidSender","inputs":[{"name":"sender","type":"address","internalType":"address"}]},{"type":"error","name":"ERC721NonexistentToken","inputs":[{"name":"tokenId","type":"uint256","internalType":"uint256"}]},{"type":"error","name":"OwnableInvalidOwner","inputs":[{"name":"owner","type":"address","internalType":"address"}]},{"type":"error","name":"OwnableUnauthorizedAccount","inputs":[{"name":"account","type":"address","internalType":"address"}]}],"bytecode":{"object":"0x60a06040526001600755600160085560016009556001600a5566038d7ea4c68000600b553480156200002f575f80fd5b50604051620050b2380380620050b28339818101604052810190620000559190620002d1565b80336040518060400160405280600d81526020017f536f6369616c50726f66696c65000000000000000000000000000000000000008152506040518060400160405280600481526020017f5350524f00000000000000000000000000000000000000000000000000000000815250815f9081620000d3919062000565565b508060019081620000e5919062000565565b5050505f73ffffffffffffffffffffffffffffffffffffffff168173ffffffffffffffffffffffffffffffffffffffff16036200015b575f6040517f1e4fbdf70000000000000000000000000000000000000000000000000000000081526004016200015291906200065a565b60405180910390fd5b6200016c81620001a960201b60201c565b508073ffffffffffffffffffffffffffffffffffffffff1660808173ffffffffffffffffffffffffffffffffffffffff1681525050505062000675565b5f60065f9054906101000a900473ffffffffffffffffffffffffffffffffffffffff1690508160065f6101000a81548173ffffffffffffffffffffffffffffffffffffffff021916908373ffffffffffffffffffffffffffffffffffffffff1602179055508173ffffffffffffffffffffffffffffffffffffffff168173ffffffffffffffffffffffffffffffffffffffff167f8be0079c531659141344cd1fd0a4f28419497f9722a3daafe3b4186f6b6457e060405160405180910390a35050565b5f80fd5b5f73ffffffffffffffffffffffffffffffffffffffff82169050919050565b5f6200029b8262000270565b9050919050565b620002ad816200028f565b8114620002b8575f80fd5b50565b5f81519050620002cb81620002a2565b92915050565b5f60208284031215620002e957620002e86200026c565b5b5f620002f884828501620002bb565b91505092915050565b5f81519050919050565b7f4e487b71000000000000000000000000000000000000000000000000000000005f52604160045260245ffd5b7f4e487b71000000000000000000000000000000000000000000000000000000005f52602260045260245ffd5b5f60028204905060018216806200037d57607f821691505b60208210810362000393576200039262000338565b5b50919050565b5f819050815f5260205f209050919050565b5f6020601f8301049050919050565b5f82821b905092915050565b5f60088302620003f77fffffffffffffffffffffffffffffffffffffffffffffffffffffffffffffffff82620003ba565b620004038683620003ba565b95508019841693508086168417925050509392505050565b5f819050919050565b5f819050919050565b5f6200044d6200044762000441846200041b565b62000424565b6200041b565b9050919050565b5f819050919050565b62000468836200042d565b62000480620004778262000454565b848454620003c6565b825550505050565b5f90565b6200049662000488565b620004a38184846200045d565b505050565b5b81811015620004ca57620004be5f826200048c565b600181019050620004a9565b5050565b601f8211156200051957620004e38162000399565b620004ee84620003ab565b81016020851015620004fe578190505b620005166200050d85620003ab565b830182620004a8565b50505b505050565b5f82821c905092915050565b5f6200053b5f19846008026200051e565b1980831691505092915050565b5f6200055583836200052a565b9150826002028217905092915050565b620005708262000301565b67ffffffffffffffff8111156200058c576200058b6200030b565b5b62000598825462000365565b620005a5828285620004ce565b5f60209050601f831160018114620005db575f8415620005c6578287015190505b620005d2858262000548565b86555062000641565b601f198416620005eb8662000399565b5f5b828110156200061457848901518255600182019150602085019450602081019050620005ed565b8683101562000634578489015162000630601f8916826200052a565b8355505b6001600288020188555050505b505050505050565b62000654816200028f565b82525050565b5f6020820190506200066f5f83018462000649565b92915050565b608051614a246200068e5f395f611af60152614a245ff3fe608060405260043610610271575f3560e01c8063715018a61161014e578063c1c75f5b116100c0578063d3331c0711610079578063d3331c07146109f2578063d524ff7614610a2e578063dcef64bd14610a6b578063e985e9c514610aa7578063ed37295f14610ae3578063f2fde38b14610b1f57610271565b8063c1c75f5b146108f2578063c61bc57e146108fc578063c7303c6114610926578063c87b56dd14610962578063cd1d81ff1461099e578063d0bdacbe146109c857610271565b806395d89b411161011257806395d89b41146107d65780639d7b5a1014610800578063a22cb4651461082a578063b0b2671d14610852578063b88d4fde1461088e578063bc84dffb146108b657610271565b8063715018a6146106f3578063781ba870146107095780637da0a877146107455780638da5cb5b1461076f5780638ebb4c151461079957610271565b80633b193918116101e757806354398d18116101ab57806354398d18146105b1578063572b6c05146105d95780635c09bd98146106155780636352211e1461063f578063671983581461067b57806370a08231146106b757610271565b80633b193918146104bf57806340a17985146104fb57806342842e0e1461053757806342d573a61461055f578063521bb9f51461059b57610271565b80630f449d80116102395780630f449d801461037d57806316b2cc7e146103b95780631939218d146103f557806323b872dd14610431578063325a7d4614610459578063334c3f0e1461048357610271565b806301ffc9a71461027557806306fdde03146102b1578063081812fc146102db578063095ea7b3146103175780630b1e7f831461033f575b5f80fd5b348015610280575f80fd5b5061029b60048036038101906102969190613540565b610b47565b6040516102a89190613585565b60405180910390f35b3480156102bc575f80fd5b506102c5610c28565b6040516102d29190613628565b60405180910390f35b3480156102e6575f80fd5b5061030160048036038101906102fc919061367b565b610cb7565b60405161030e91906136e5565b60405180910390f35b348015610322575f80fd5b5061033d60048036038101906103389190613728565b610cd2565b005b34801561034a575f80fd5b506103656004803603810190610360919061367b565b610ce8565b60405161037493929190613775565b60405180910390f35b348015610388575f80fd5b506103a3600480360381019061039e91906137b1565b610d94565b6040516103b09190613585565b60405180910390f35b3480156103c4575f80fd5b506103df60048036038101906103da919061367b565b610dbe565b6040516103ec91906138a6565b60405180910390f35b348015610400575f80fd5b5061041b600480360381019061041691906137b1565b610e7a565b60405161042891906138c6565b60405180910390f35b34801561043c575f80fd5b50610457600480360381019061045291906138df565b610ea5565b005b348015610464575f80fd5b5061046d610fa4565b60405161047a91906138c6565b60405180910390f35b34801561048e575f80fd5b506104a960048036038101906104a49190613990565b610faa565b6040516104b691906138c6565b60405180910390f35b3480156104ca575f80fd5b506104e560048036038101906104e091906139db565b611143565b6040516104f29190613628565b60405180910390f35b348015610506575f80fd5b50610521600480360381019061051c9190613a06565b6111de565b60405161052e91906138c6565b60405180910390f35b348015610542575f80fd5b5061055d600480360381019061055891906138df565b61144b565b005b34801561056a575f80fd5b50610585600480360381019061058091906139db565b61146a565b60405161059291906138c6565b60405180910390f35b3480156105a6575f80fd5b506105af61147f565b005b3480156105bc575f80fd5b506105d760048036038101906105d2919061367b565b6115de565b005b3480156105e4575f80fd5b506105ff60048036038101906105fa91906139db565b6117fe565b60405161060c9190613585565b60405180910390f35b348015610620575f80fd5b5061062961180f565b60405161063691906138c6565b60405180910390f35b34801561064a575f80fd5b506106656004803603810190610660919061367b565b611815565b60405161067291906136e5565b60405180910390f35b348015610686575f80fd5b506106a1600480360381019061069c91906139db565b611826565b6040516106ae9190613b66565b60405180910390f35b3480156106c2575f80fd5b506106dd60048036038101906106d891906139db565b611a15565b6040516106ea91906138c6565b60405180910390f35b3480156106fe575f80fd5b50610707611acb565b005b348015610714575f80fd5b5061072f600480360381019061072a919061367b565b611ade565b60405161073c91906138c6565b60405180910390f35b348015610750575f80fd5b50610759611af3565b60405161076691906136e5565b60405180910390f35b34801561077a575f80fd5b50610783611b1a565b60405161079091906136e5565b60405180910390f35b3480156107a4575f80fd5b506107bf60048036038101906107ba919061367b565b611b42565b6040516107cd929190613b86565b60405180910390f35b3480156107e1575f80fd5b506107ea611c07565b6040516107f79190613628565b60405180910390f35b34801561080b575f80fd5b50610814611c97565b60405161082191906138c6565b60405180910390f35b348015610835575f80fd5b50610850600480360381019061084b9190613bde565b611c9d565b005b34801561085d575f80fd5b506108786004803603810190610873919061367b565b611cb3565b60405161088591906138c6565b60405180910390f35b348015610899575f80fd5b506108b460048036038101906108af9190613d44565b611cd0565b005b3480156108c1575f80fd5b506108dc60048036038101906108d7919061367b565b611cf5565b6040516108e99190613585565b60405180910390f35b6108fa611d12565b005b348015610907575f80fd5b50610910611ed7565b60405161091d91906138c6565b60405180910390f35b348015610931575f80fd5b5061094c60048036038101906109479190613990565b611edd565b60405161095991906138c6565b60405180910390f35b34801561096d575f80fd5b506109886004803603810190610983919061367b565b61209b565b6040516109959190613628565b60405180910390f35b3480156109a9575f80fd5b506109b2612101565b6040516109bf91906138c6565b60405180910390f35b3480156109d3575f80fd5b506109dc612107565b6040516109e991906138c6565b60405180910390f35b3480156109fd575f80fd5b50610a186004803603810190610a13919061367b565b61210d565b604051610a2591906138c6565b60405180910390f35b348015610a39575f80fd5b50610a546004803603810190610a4f919061367b565b612122565b604051610a62929190613e7b565b60405180910390f35b348015610a76575f80fd5b50610a916004803603810190610a8c91906137b1565b612357565b604051610a9e91906138c6565b60405180910390f35b348015610ab2575f80fd5b50610acd6004803603810190610ac89190613eb0565b612382565b604051610ada9190613585565b60405180910390f35b348015610aee575f80fd5b50610b096004803603810190610b0491906139db565b612410565b604051610b169190613585565b60405180910390f35b348015610b2a575f80fd5b50610b456004803603810190610b4091906139db565b612478565b005b5f7f80ac58cd000000000000000000000000000000000000000000000000000000007bffffffffffffffffffffffffffffffffffffffffffffffffffffffff1916827bffffffffffffffffffffffffffffffffffffffffffffffffffffffff19161480610c1157507f5b5e139f000000000000000000000000000000000000000000000000000000007bffffffffffffffffffffffffffffffffffffffffffffffffffffffff1916827bffffffffffffffffffffffffffffffffffffffffffffffffffffffff1916145b80610c215750610c20826124fc565b5b9050919050565b60605f8054610c3690613f1b565b80601f0160208091040260200160405190810160405280929190818152602001828054610c6290613f1b565b8015610cad5780601f10610c8457610100808354040283529160200191610cad565b820191905f5260205f20905b815481529060010190602001808311610c9057829003601f168201915b5050505050905090565b5f610cc182612565565b50610ccb826125eb565b9050919050565b610ce48282610cdf612624565b612632565b5050565b6010602052805f5260405f205f91509050805f015490806001018054610d0d90613f1b565b80601f0160208091040260200160405190810160405280929190818152602001828054610d3990613f1b565b8015610d845780601f10610d5b57610100808354040283529160200191610d84565b820191905f5260205f20905b815481529060010190602001808311610d6757829003601f168201915b5050505050908060020154905083565b6012602052815f5260405f20602052805f5260405f205f915091509054906101000a900460ff1681565b60605f60105f8481526020019081526020015f205f015403610e15576040517f08c379a0000000000000000000000000000000000000000000000000000000008152600401610e0c90613f95565b60405180910390fd5b60145f8381526020019081526020015f20805480602002602001604051908101604052809291908181526020018280548015610e6e57602002820191905f5260205f20905b815481526020019060010190808311610e5a575b50505050509050919050565b6014602052815f5260405f208181548110610e93575f80fd5b905f5260205f20015f91509150505481565b5f73ffffffffffffffffffffffffffffffffffffffff168273ffffffffffffffffffffffffffffffffffffffff1603610f15575f6040517f64a0ae92000000000000000000000000000000000000000000000000000000008152600401610f0c91906136e5565b60405180910390fd5b5f610f288383610f23612624565b612644565b90508373ffffffffffffffffffffffffffffffffffffffff168173ffffffffffffffffffffffffffffffffffffffff1614610f9e578382826040517f64283d7b000000000000000000000000000000000000000000000000000000008152600401610f9593929190613fb3565b60405180910390fd5b50505050565b600a5481565b5f80610fb4612624565b90505f600e5f8373ffffffffffffffffffffffffffffffffffffffff1673ffffffffffffffffffffffffffffffffffffffff1681526020019081526020015f205414611035576040517f08c379a000000000000000000000000000000000000000000000000000000000815260040161102c90614032565b60405180910390fd5b5f60075f8154809291906110489061407d565b919050559050611058828261270e565b8484600d5f8573ffffffffffffffffffffffffffffffffffffffff1673ffffffffffffffffffffffffffffffffffffffff1681526020019081526020015f2091826110a492919061426b565b5080600e5f8473ffffffffffffffffffffffffffffffffffffffff1673ffffffffffffffffffffffffffffffffffffffff1681526020019081526020015f2081905550808273ffffffffffffffffffffffffffffffffffffffff167f02ed4ee0412e67bbc9ed1687f3ad6bb7134d359d45994f3bf5302e91d81cf61f8787604051611130929190614364565b60405180910390a3809250505092915050565b600d602052805f5260405f205f91509050805461115f90613f1b565b80601f016020809104026020016040519081016040528092919081815260200182805461118b90613f1b565b80156111d65780601f106111ad576101008083540402835291602001916111d6565b820191905f5260205f20905b8154815290600101906020018083116111b957829003601f168201915b505050505081565b5f806111e8612624565b90505f600e5f8373ffffffffffffffffffffffffffffffffffffffff1673ffffffffffffffffffffffffffffffffffffffff1681526020019081526020015f205490505f810361126d576040517f08c379a0000000000000000000000000000000000000000000000000000000008152600401611264906143d0565b60405180910390fd5b5f60105f8881526020019081526020015f205f0154036112c2576040517f08c379a00000000000000000000000000000000000000000000000000000000081526004016112b990613f95565b60405180910390fd5b5f60095f8154809291906112d59061407d565b91905055905060405180604001604052808473ffffffffffffffffffffffffffffffffffffffff16815260200187878080601f0160208091040260200160405190810160405280939291908181526020018383808284375f81840152601f19601f8201169050808301925050505050505081525060135f8381526020019081526020015f205f820151815f015f6101000a81548173ffffffffffffffffffffffffffffffffffffffff021916908373ffffffffffffffffffffffffffffffffffffffff16021790555060208201518160010190816113b391906143ee565b5090505060145f8881526020019081526020015f2081908060018154018082558091505060019003905f5260205f20015f90919091909150558273ffffffffffffffffffffffffffffffffffffffff1681887f6182993657fded7a136b26cce2be6cd71f93555bab62bcf787df004919bcc70d8989604051611436929190614364565b60405180910390a48093505050509392505050565b61146583838360405180602001604052805f815250611cd0565b505050565b600e602052805f5260405f205f915090505481565b611487612801565b5f600c5490505f81116114cf576040517f08c379a00000000000000000000000000000000000000000000000000000000081526004016114c690614507565b60405180910390fd5b5f600c819055505f6114df611b1a565b73ffffffffffffffffffffffffffffffffffffffff168260405161150290614552565b5f6040518083038185875af1925050503d805f811461153c576040519150601f19603f3d011682016040523d82523d5f602084013e611541565b606091505b5050905080611585576040517f08c379a000000000000000000000000000000000000000000000000000000000815260040161157c906145b0565b60405180910390fd5b61158d611b1a565b73ffffffffffffffffffffffffffffffffffffffff167f5ecff6e53b03512e1a4ae8254d5d3f1868085deeff99f912a3d31270598a363d836040516115d291906138c6565b60405180910390a25050565b5f6115e7612624565b90505f600e5f8373ffffffffffffffffffffffffffffffffffffffff1673ffffffffffffffffffffffffffffffffffffffff1681526020019081526020015f205490505f810361166c576040517f08c379a0000000000000000000000000000000000000000000000000000000008152600401611663906143d0565b60405180910390fd5b5f60105f8581526020019081526020015f205f0154036116c1576040517f08c379a00000000000000000000000000000000000000000000000000000000081526004016116b890613f95565b60405180910390fd5b5f60125f8581526020019081526020015f205f8381526020019081526020015f205f9054906101000a900460ff169050801561175c5760105f8581526020019081526020015f206002015f81548092919061171b906145ce565b91905055505f60125f8681526020019081526020015f205f8481526020019081526020015f205f6101000a81548160ff0219169083151502179055506117be565b60105f8581526020019081526020015f206002015f8154809291906117809061407d565b9190505550600160125f8681526020019081526020015f205f8481526020019081526020015f205f6101000a81548160ff0219169083151502179055505b81847fc061ab9bd312c0ddee79813dde4491363767a2f50512d44f0c416ab6d9c2358483156040516117f09190613585565b60405180910390a350505050565b5f61180882612888565b9050919050565b60085481565b5f61181f82612565565b9050919050565b60605f600e5f8473ffffffffffffffffffffffffffffffffffffffff1673ffffffffffffffffffffffffffffffffffffffff1681526020019081526020015f205490505f81036118ab576040517f08c379a00000000000000000000000000000000000000000000000000000000081526004016118a2906143d0565b60405180910390fd5b5f60115f8381526020019081526020015f2090505f818054905067ffffffffffffffff8111156118de576118dd613c20565b5b60405190808252806020026020018201604052801561191157816020015b60608152602001906001900390816118fc5790505b5090505f5b8280549050811015611a095760105f848381548110611938576119376145f5565b5b905f5260205f20015481526020019081526020015f20600101805461195c90613f1b565b80601f016020809104026020016040519081016040528092919081815260200182805461198890613f1b565b80156119d35780601f106119aa576101008083540402835291602001916119d3565b820191905f5260205f20905b8154815290600101906020018083116119b657829003601f168201915b50505050508282815181106119eb576119ea6145f5565b5b60200260200101819052508080611a019061407d565b915050611916565b50809350505050919050565b5f8073ffffffffffffffffffffffffffffffffffffffff168273ffffffffffffffffffffffffffffffffffffffff1603611a86575f6040517f89c62b64000000000000000000000000000000000000000000000000000000008152600401611a7d91906136e5565b60405180910390fd5b60035f8373ffffffffffffffffffffffffffffffffffffffff1673ffffffffffffffffffffffffffffffffffffffff1681526020019081526020015f20549050919050565b611ad3612801565b611adc5f6128c6565b565b6016602052805f5260405f205f915090505481565b5f7f0000000000000000000000000000000000000000000000000000000000000000905090565b5f60065f9054906101000a900473ffffffffffffffffffffffffffffffffffffffff16905090565b6013602052805f5260405f205f91509050805f015f9054906101000a900473ffffffffffffffffffffffffffffffffffffffff1690806001018054611b8690613f1b565b80601f0160208091040260200160405190810160405280929190818152602001828054611bb290613f1b565b8015611bfd5780601f10611bd457610100808354040283529160200191611bfd565b820191905f5260205f20905b815481529060010190602001808311611be057829003601f168201915b5050505050905082565b606060018054611c1690613f1b565b80601f0160208091040260200160405190810160405280929190818152602001828054611c4290613f1b565b8015611c8d5780601f10611c6457610100808354040283529160200191611c8d565b820191905f5260205f20905b815481529060010190602001808311611c7057829003601f168201915b5050505050905090565b600b5481565b611caf611ca8612624565b8383612989565b5050565b5f60105f8381526020019081526020015f20600201549050919050565b611cdb848484610ea5565b611cef611ce6612624565b85858585612af2565b50505050565b600f602052805f5260405f205f915054906101000a900460ff1681565b5f611d1b612624565b90505f600e5f8373ffffffffffffffffffffffffffffffffffffffff1673ffffffffffffffffffffffffffffffffffffffff1681526020019081526020015f205490505f8103611da0576040517f08c379a0000000000000000000000000000000000000000000000000000000008152600401611d97906143d0565b60405180910390fd5b600f5f8281526020019081526020015f205f9054906101000a900460ff1615611dfe576040517f08c379a0000000000000000000000000000000000000000000000000000000008152600401611df59061466c565b60405180910390fd5b600b54341015611e43576040517f08c379a0000000000000000000000000000000000000000000000000000000008152600401611e3a906146d4565b60405180910390fd5b6001600f5f8381526020019081526020015f205f6101000a81548160ff02191690831515021790555034600c5f828254611e7d91906146f2565b925050819055508173ffffffffffffffffffffffffffffffffffffffff16817f5162fb174cb2c7f0f19d15e64eb0aa010f3a4b0cce2b57cc88957af7c1ed843a34604051611ecb91906138c6565b60405180910390a35050565b600c5481565b5f80611ee7612624565b90505f600e5f8373ffffffffffffffffffffffffffffffffffffffff1673ffffffffffffffffffffffffffffffffffffffff1681526020019081526020015f205490505f8103611f6c576040517f08c379a0000000000000000000000000000000000000000000000000000000008152600401611f63906143d0565b60405180910390fd5b5f60085f815480929190611f7f9061407d565b919050559050604051806060016040528083815260200187878080601f0160208091040260200160405190810160405280939291908181526020018383808284375f81840152601f19601f8201169050808301925050505050505081526020015f81525060105f8381526020019081526020015f205f820151815f0155602082015181600101908161201191906143ee565b506040820151816002015590505060115f8381526020019081526020015f2081908060018154018082558091505060019003905f5260205f20015f909190919091505580827f0f1db10d0087721c7eec1c7b0e9d20d9211033f0c0401d783d72101601b452238888604051612087929190614364565b60405180910390a380935050505092915050565b60606120a682612565565b505f6120b0612c9e565b90505f8151116120ce5760405180602001604052805f8152506120f9565b806120d884612cb4565b6040516020016120e992919061475f565b6040516020818303038152906040525b915050919050565b60075481565b60095481565b6015602052805f5260405f205f915090505481565b6060805f60145f8581526020019081526020015f2090505f818054905067ffffffffffffffff81111561215857612157613c20565b5b6040519080825280602002602001820160405280156121865781602001602082028036833780820191505090505b5090505f828054905067ffffffffffffffff8111156121a8576121a7613c20565b5b6040519080825280602002602001820160405280156121db57816020015b60608152602001906001900390816121c65790505b5090505f5b8380549050811015612348575f60135f868481548110612203576122026145f5565b5b905f5260205f20015481526020019081526020015f209050805f015f9054906101000a900473ffffffffffffffffffffffffffffffffffffffff16848381518110612251576122506145f5565b5b602002602001019073ffffffffffffffffffffffffffffffffffffffff16908173ffffffffffffffffffffffffffffffffffffffff168152505080600101805461229a90613f1b565b80601f01602080910402602001604051908101604052809291908181526020018280546122c690613f1b565b80156123115780601f106122e857610100808354040283529160200191612311565b820191905f5260205f20905b8154815290600101906020018083116122f457829003601f168201915b5050505050838381518110612329576123286145f5565b5b60200260200101819052505080806123409061407d565b9150506121e0565b50818194509450505050915091565b6011602052815f5260405f208181548110612370575f80fd5b905f5260205f20015f91509150505481565b5f60055f8473ffffffffffffffffffffffffffffffffffffffff1673ffffffffffffffffffffffffffffffffffffffff1681526020019081526020015f205f8373ffffffffffffffffffffffffffffffffffffffff1673ffffffffffffffffffffffffffffffffffffffff1681526020019081526020015f205f9054906101000a900460ff16905092915050565b5f80600e5f8473ffffffffffffffffffffffffffffffffffffffff1673ffffffffffffffffffffffffffffffffffffffff1681526020019081526020015f20549050600f5f8281526020019081526020015f205f9054906101000a900460ff16915050919050565b612480612801565b5f73ffffffffffffffffffffffffffffffffffffffff168173ffffffffffffffffffffffffffffffffffffffff16036124f0575f6040517f1e4fbdf70000000000000000000000000000000000000000000000000000000081526004016124e791906136e5565b60405180910390fd5b6124f9816128c6565b50565b5f7f01ffc9a7000000000000000000000000000000000000000000000000000000007bffffffffffffffffffffffffffffffffffffffffffffffffffffffff1916827bffffffffffffffffffffffffffffffffffffffffffffffffffffffff1916149050919050565b5f8061257083612d7e565b90505f73ffffffffffffffffffffffffffffffffffffffff168173ffffffffffffffffffffffffffffffffffffffff16036125e257826040517f7e2732890000000000000000000000000000000000000000000000000000000081526004016125d991906138c6565b60405180910390fd5b80915050919050565b5f60045f8381526020019081526020015f205f9054906101000a900473ffffffffffffffffffffffffffffffffffffffff169050919050565b5f61262d612db7565b905090565b61263f8383836001612e1f565b505050565b5f8061264f84612d7e565b90505f73ffffffffffffffffffffffffffffffffffffffff168173ffffffffffffffffffffffffffffffffffffffff16141580156126b957505f73ffffffffffffffffffffffffffffffffffffffff168573ffffffffffffffffffffffffffffffffffffffff1614155b156126f9576040517f08c379a00000000000000000000000000000000000000000000000000000000081526004016126f0906147cc565b60405180910390fd5b612704858585612fde565b9150509392505050565b5f73ffffffffffffffffffffffffffffffffffffffff168273ffffffffffffffffffffffffffffffffffffffff160361277e575f6040517f64a0ae9200000000000000000000000000000000000000000000000000000000815260040161277591906136e5565b60405180910390fd5b5f61278a83835f612644565b90505f73ffffffffffffffffffffffffffffffffffffffff168173ffffffffffffffffffffffffffffffffffffffff16146127fc575f6040517f73c6ac6e0000000000000000000000000000000000000000000000000000000081526004016127f391906136e5565b60405180910390fd5b505050565b612809612624565b73ffffffffffffffffffffffffffffffffffffffff16612827611b1a565b73ffffffffffffffffffffffffffffffffffffffff16146128865761284a612624565b6040517f118cdaa700000000000000000000000000000000000000000000000000000000815260040161287d91906136e5565b60405180910390fd5b565b5f612891611af3565b73ffffffffffffffffffffffffffffffffffffffff168273ffffffffffffffffffffffffffffffffffffffff16149050919050565b5f60065f9054906101000a900473ffffffffffffffffffffffffffffffffffffffff1690508160065f6101000a81548173ffffffffffffffffffffffffffffffffffffffff021916908373ffffffffffffffffffffffffffffffffffffffff1602179055508173ffffffffffffffffffffffffffffffffffffffff168173ffffffffffffffffffffffffffffffffffffffff167f8be0079c531659141344cd1fd0a4f28419497f9722a3daafe3b4186f6b6457e060405160405180910390a35050565b5f73ffffffffffffffffffffffffffffffffffffffff168273ffffffffffffffffffffffffffffffffffffffff16036129f957816040517f5b08ba180000000000000000000000000000000000000000000000000000000081526004016129f091906136e5565b60405180910390fd5b8060055f8573ffffffffffffffffffffffffffffffffffffffff1673ffffffffffffffffffffffffffffffffffffffff1681526020019081526020015f205f8473ffffffffffffffffffffffffffffffffffffffff1673ffffffffffffffffffffffffffffffffffffffff1681526020019081526020015f205f6101000a81548160ff0219169083151502179055508173ffffffffffffffffffffffffffffffffffffffff168373ffffffffffffffffffffffffffffffffffffffff167f17307eab39ab6107e8899845ad3d59bd9653f200f220920489ca2b5937696c3183604051612ae59190613585565b60405180910390a3505050565b5f8373ffffffffffffffffffffffffffffffffffffffff163b1115612c97578273ffffffffffffffffffffffffffffffffffffffff1663150b7a02868685856040518563ffffffff1660e01b8152600401612b50949392919061483c565b6020604051808303815f875af1925050508015612b8b57506040513d601f19601f82011682018060405250810190612b88919061489a565b60015b612c0c573d805f8114612bb9576040519150601f19603f3d011682016040523d82523d5f602084013e612bbe565b606091505b505f815103612c0457836040517f64a0ae92000000000000000000000000000000000000000000000000000000008152600401612bfb91906136e5565b60405180910390fd5b805160208201fd5b63150b7a0260e01b7bffffffffffffffffffffffffffffffffffffffffffffffffffffffff1916817bffffffffffffffffffffffffffffffffffffffffffffffffffffffff191614612c9557836040517f64a0ae92000000000000000000000000000000000000000000000000000000008152600401612c8c91906136e5565b60405180910390fd5b505b5050505050565b606060405180602001604052805f815250905090565b60605f6001612cc2846131e9565b0190505f8167ffffffffffffffff811115612ce057612cdf613c20565b5b6040519080825280601f01601f191660200182016040528015612d125781602001600182028036833780820191505090505b5090505f82602083010190505b600115612d73578080600190039150507f3031323334353637383961626364656600000000000000000000000000000000600a86061a8153600a8581612d6857612d676148c5565b5b0494505f8503612d1f575b819350505050919050565b5f60025f8381526020019081526020015f205f9054906101000a900473ffffffffffffffffffffffffffffffffffffffff169050919050565b5f805f36905090505f612dc861333a565b9050808210158015612ddf5750612dde336117fe565b5b15612e0f575f36828403908092612df8939291906148fa565b90612e039190614969565b60601c92505050612e1c565b612e17613348565b925050505b90565b8080612e5757505f73ffffffffffffffffffffffffffffffffffffffff168273ffffffffffffffffffffffffffffffffffffffff1614155b15612f89575f612e6684612565565b90505f73ffffffffffffffffffffffffffffffffffffffff168373ffffffffffffffffffffffffffffffffffffffff1614158015612ed057508273ffffffffffffffffffffffffffffffffffffffff168173ffffffffffffffffffffffffffffffffffffffff1614155b8015612ee35750612ee18184612382565b155b15612f2557826040517fa9fbf51f000000000000000000000000000000000000000000000000000000008152600401612f1c91906136e5565b60405180910390fd5b8115612f8757838573ffffffffffffffffffffffffffffffffffffffff168273ffffffffffffffffffffffffffffffffffffffff167f8c5be1e5ebec7d5bd14f71427d1e84f3dd0314c0f7b2291e5b200ac8c7c3b92560405160405180910390a45b505b8360045f8581526020019081526020015f205f6101000a81548173ffffffffffffffffffffffffffffffffffffffff021916908373ffffffffffffffffffffffffffffffffffffffff16021790555050505050565b5f80612fe984612d7e565b90505f73ffffffffffffffffffffffffffffffffffffffff168373ffffffffffffffffffffffffffffffffffffffff161461302a5761302981848661334f565b5b5f73ffffffffffffffffffffffffffffffffffffffff168173ffffffffffffffffffffffffffffffffffffffff16146130b5576130695f855f80612e1f565b600160035f8373ffffffffffffffffffffffffffffffffffffffff1673ffffffffffffffffffffffffffffffffffffffff1681526020019081526020015f205f82825403925050819055505b5f73ffffffffffffffffffffffffffffffffffffffff168573ffffffffffffffffffffffffffffffffffffffff161461313457600160035f8773ffffffffffffffffffffffffffffffffffffffff1673ffffffffffffffffffffffffffffffffffffffff1681526020019081526020015f205f82825401925050819055505b8460025f8681526020019081526020015f205f6101000a81548173ffffffffffffffffffffffffffffffffffffffff021916908373ffffffffffffffffffffffffffffffffffffffff160217905550838573ffffffffffffffffffffffffffffffffffffffff168273ffffffffffffffffffffffffffffffffffffffff167fddf252ad1be2c89b69c2b068fc378daa952ba7f163c4a11628f55a4df523b3ef60405160405180910390a4809150509392505050565b5f805f90507a184f03e93ff9f4daa797ed6e38ed64bf6a1f0100000000000000008310613245577a184f03e93ff9f4daa797ed6e38ed64bf6a1f010000000000000000838161323b5761323a6148c5565b5b0492506040810190505b6d04ee2d6d415b85acef81000000008310613282576d04ee2d6d415b85acef81000000008381613278576132776148c5565b5b0492506020810190505b662386f26fc1000083106132b157662386f26fc1000083816132a7576132a66148c5565b5b0492506010810190505b6305f5e10083106132da576305f5e10083816132d0576132cf6148c5565b5b0492506008810190505b61271083106132ff5761271083816132f5576132f46148c5565b5b0492506004810190505b606483106133225760648381613318576133176148c5565b5b0492506002810190505b600a8310613331576001810190505b80915050919050565b5f613343613412565b905090565b5f33905090565b61335a83838361341a565b61340d575f73ffffffffffffffffffffffffffffffffffffffff168373ffffffffffffffffffffffffffffffffffffffff16036133ce57806040517f7e2732890000000000000000000000000000000000000000000000000000000081526004016133c591906138c6565b60405180910390fd5b81816040517f177e802f0000000000000000000000000000000000000000000000000000000081526004016134049291906149c7565b60405180910390fd5b505050565b5f6014905090565b5f8073ffffffffffffffffffffffffffffffffffffffff168373ffffffffffffffffffffffffffffffffffffffff16141580156134d157508273ffffffffffffffffffffffffffffffffffffffff168473ffffffffffffffffffffffffffffffffffffffff16148061349257506134918484612382565b5b806134d057508273ffffffffffffffffffffffffffffffffffffffff166134b8836125eb565b73ffffffffffffffffffffffffffffffffffffffff16145b5b90509392505050565b5f604051905090565b5f80fd5b5f80fd5b5f7fffffffff0000000000000000000000000000000000000000000000000000000082169050919050565b61351f816134eb565b8114613529575f80fd5b50565b5f8135905061353a81613516565b92915050565b5f60208284031215613555576135546134e3565b5b5f6135628482850161352c565b91505092915050565b5f8115159050919050565b61357f8161356b565b82525050565b5f6020820190506135985f830184613576565b92915050565b5f81519050919050565b5f82825260208201905092915050565b5f5b838110156135d55780820151818401526020810190506135ba565b5f8484015250505050565b5f601f19601f8301169050919050565b5f6135fa8261359e565b61360481856135a8565b93506136148185602086016135b8565b61361d816135e0565b840191505092915050565b5f6020820190508181035f83015261364081846135f0565b905092915050565b5f819050919050565b61365a81613648565b8114613664575f80fd5b50565b5f8135905061367581613651565b92915050565b5f602082840312156136905761368f6134e3565b5b5f61369d84828501613667565b91505092915050565b5f73ffffffffffffffffffffffffffffffffffffffff82169050919050565b5f6136cf826136a6565b9050919050565b6136df816136c5565b82525050565b5f6020820190506136f85f8301846136d6565b92915050565b613707816136c5565b8114613711575f80fd5b50565b5f81359050613722816136fe565b92915050565b5f806040838503121561373e5761373d6134e3565b5b5f61374b85828601613714565b925050602061375c85828601613667565b9150509250929050565b61376f81613648565b82525050565b5f6060820190506137885f830186613766565b818103602083015261379a81856135f0565b90506137a96040830184613766565b949350505050565b5f80604083850312156137c7576137c66134e3565b5b5f6137d485828601613667565b92505060206137e585828601613667565b9150509250929050565b5f81519050919050565b5f82825260208201905092915050565b5f819050602082019050919050565b61382181613648565b82525050565b5f6138328383613818565b60208301905092915050565b5f602082019050919050565b5f613854826137ef565b61385e81856137f9565b935061386983613809565b805f5b838110156138995781516138808882613827565b975061388b8361383e565b92505060018101905061386c565b5085935050505092915050565b5f6020820190508181035f8301526138be818461384a565b905092915050565b5f6020820190506138d95f830184613766565b92915050565b5f805f606084860312156138f6576138f56134e3565b5b5f61390386828701613714565b935050602061391486828701613714565b925050604061392586828701613667565b9150509250925092565b5f80fd5b5f80fd5b5f80fd5b5f8083601f8401126139505761394f61392f565b5b8235905067ffffffffffffffff81111561396d5761396c613933565b5b60208301915083600182028301111561398957613988613937565b5b9250929050565b5f80602083850312156139a6576139a56134e3565b5b5f83013567ffffffffffffffff8111156139c3576139c26134e7565b5b6139cf8582860161393b565b92509250509250929050565b5f602082840312156139f0576139ef6134e3565b5b5f6139fd84828501613714565b91505092915050565b5f805f60408486031215613a1d57613a1c6134e3565b5b5f613a2a86828701613667565b935050602084013567ffffffffffffffff811115613a4b57613a4a6134e7565b5b613a578682870161393b565b92509250509250925092565b5f81519050919050565b5f82825260208201905092915050565b5f819050602082019050919050565b5f82825260208201905092915050565b5f613aa68261359e565b613ab08185613a8c565b9350613ac08185602086016135b8565b613ac9816135e0565b840191505092915050565b5f613adf8383613a9c565b905092915050565b5f602082019050919050565b5f613afd82613a63565b613b078185613a6d565b935083602082028501613b1985613a7d565b805f5b85811015613b545784840389528151613b358582613ad4565b9450613b4083613ae7565b925060208a01995050600181019050613b1c565b50829750879550505050505092915050565b5f6020820190508181035f830152613b7e8184613af3565b905092915050565b5f604082019050613b995f8301856136d6565b8181036020830152613bab81846135f0565b90509392505050565b613bbd8161356b565b8114613bc7575f80fd5b50565b5f81359050613bd881613bb4565b92915050565b5f8060408385031215613bf457613bf36134e3565b5b5f613c0185828601613714565b9250506020613c1285828601613bca565b9150509250929050565b5f80fd5b7f4e487b71000000000000000000000000000000000000000000000000000000005f52604160045260245ffd5b613c56826135e0565b810181811067ffffffffffffffff82111715613c7557613c74613c20565b5b80604052505050565b5f613c876134da565b9050613c938282613c4d565b919050565b5f67ffffffffffffffff821115613cb257613cb1613c20565b5b613cbb826135e0565b9050602081019050919050565b828183375f83830152505050565b5f613ce8613ce384613c98565b613c7e565b905082815260208101848484011115613d0457613d03613c1c565b5b613d0f848285613cc8565b509392505050565b5f82601f830112613d2b57613d2a61392f565b5b8135613d3b848260208601613cd6565b91505092915050565b5f805f8060808587031215613d5c57613d5b6134e3565b5b5f613d6987828801613714565b9450506020613d7a87828801613714565b9350506040613d8b87828801613667565b925050606085013567ffffffffffffffff811115613dac57613dab6134e7565b5b613db887828801613d17565b91505092959194509250565b5f81519050919050565b5f82825260208201905092915050565b5f819050602082019050919050565b613df6816136c5565b82525050565b5f613e078383613ded565b60208301905092915050565b5f602082019050919050565b5f613e2982613dc4565b613e338185613dce565b9350613e3e83613dde565b805f5b83811015613e6e578151613e558882613dfc565b9750613e6083613e13565b925050600181019050613e41565b5085935050505092915050565b5f6040820190508181035f830152613e938185613e1f565b90508181036020830152613ea78184613af3565b90509392505050565b5f8060408385031215613ec657613ec56134e3565b5b5f613ed385828601613714565b9250506020613ee485828601613714565b9150509250929050565b7f4e487b71000000000000000000000000000000000000000000000000000000005f52602260045260245ffd5b5f6002820490506001821680613f3257607f821691505b602082108103613f4557613f44613eee565b5b50919050565b7f506f737420646f6573206e6f74206578697374000000000000000000000000005f82015250565b5f613f7f6013836135a8565b9150613f8a82613f4b565b602082019050919050565b5f6020820190508181035f830152613fac81613f73565b9050919050565b5f606082019050613fc65f8301866136d6565b613fd36020830185613766565b613fe060408301846136d6565b949350505050565b7f50726f66696c6520616c726561647920657869737473000000000000000000005f82015250565b5f61401c6016836135a8565b915061402782613fe8565b602082019050919050565b5f6020820190508181035f83015261404981614010565b9050919050565b7f4e487b71000000000000000000000000000000000000000000000000000000005f52601160045260245ffd5b5f61408782613648565b91507fffffffffffffffffffffffffffffffffffffffffffffffffffffffffffffffff82036140b9576140b8614050565b5b600182019050919050565b5f82905092915050565b5f819050815f5260205f209050919050565b5f6020601f8301049050919050565b5f82821b905092915050565b5f6008830261412a7fffffffffffffffffffffffffffffffffffffffffffffffffffffffffffffffff826140ef565b61413486836140ef565b95508019841693508086168417925050509392505050565b5f819050919050565b5f61416f61416a61416584613648565b61414c565b613648565b9050919050565b5f819050919050565b61418883614155565b61419c61419482614176565b8484546140fb565b825550505050565b5f90565b6141b06141a4565b6141bb81848461417f565b505050565b5b818110156141de576141d35f826141a8565b6001810190506141c1565b5050565b601f821115614223576141f4816140ce565b6141fd846140e0565b8101602085101561420c578190505b614220614218856140e0565b8301826141c0565b50505b505050565b5f82821c905092915050565b5f6142435f1984600802614228565b1980831691505092915050565b5f61425b8383614234565b9150826002028217905092915050565b61427583836140c4565b67ffffffffffffffff81111561428e5761428d613c20565b5b6142988254613f1b565b6142a38282856141e2565b5f601f8311600181146142d0575f84156142be578287013590505b6142c88582614250565b86555061432f565b601f1984166142de866140ce565b5f5b82811015614305578489013582556001820191506020850194506020810190506142e0565b86831015614322578489013561431e601f891682614234565b8355505b6001600288020188555050505b50505050505050565b5f61434383856135a8565b9350614350838584613cc8565b614359836135e0565b840190509392505050565b5f6020820190508181035f83015261437d818486614338565b90509392505050565b7f50726f66696c65207265717569726564000000000000000000000000000000005f82015250565b5f6143ba6010836135a8565b91506143c582614386565b602082019050919050565b5f6020820190508181035f8301526143e7816143ae565b9050919050565b6143f78261359e565b67ffffffffffffffff8111156144105761440f613c20565b5b61441a8254613f1b565b6144258282856141e2565b5f60209050601f831160018114614456575f8415614444578287015190505b61444e8582614250565b8655506144b5565b601f198416614464866140ce565b5f5b8281101561448b57848901518255600182019150602085019450602081019050614466565b868310156144a857848901516144a4601f891682614234565b8355505b6001600288020188555050505b505050505050565b7f4e6f206665657320746f20636c61696d000000000000000000000000000000005f82015250565b5f6144f16010836135a8565b91506144fc826144bd565b602082019050919050565b5f6020820190508181035f83015261451e816144e5565b9050919050565b5f81905092915050565b50565b5f61453d5f83614525565b91506145488261452f565b5f82019050919050565b5f61455c82614532565b9150819050919050565b7f4661696c656420746f2073656e642045746865720000000000000000000000005f82015250565b5f61459a6014836135a8565b91506145a582614566565b602082019050919050565b5f6020820190508181035f8301526145c78161458e565b9050919050565b5f6145d882613648565b91505f82036145ea576145e9614050565b5b600182039050919050565b7f4e487b71000000000000000000000000000000000000000000000000000000005f52603260045260245ffd5b7f416c72656164792068617320626c7565206d61726b00000000000000000000005f82015250565b5f6146566015836135a8565b915061466182614622565b602082019050919050565b5f6020820190508181035f8301526146838161464a565b9050919050565b7f496e73756666696369656e74207061796d656e740000000000000000000000005f82015250565b5f6146be6014836135a8565b91506146c98261468a565b602082019050919050565b5f6020820190508181035f8301526146eb816146b2565b9050919050565b5f6146fc82613648565b915061470783613648565b925082820190508082111561471f5761471e614050565b5b92915050565b5f81905092915050565b5f6147398261359e565b6147438185614725565b93506147538185602086016135b8565b80840191505092915050565b5f61476a828561472f565b9150614776828461472f565b91508190509392505050565b7f5472616e7366657273206172652064697361626c6564000000000000000000005f82015250565b5f6147b66016836135a8565b91506147c182614782565b602082019050919050565b5f6020820190508181035f8301526147e3816147aa565b9050919050565b5f81519050919050565b5f82825260208201905092915050565b5f61480e826147ea565b61481881856147f4565b93506148288185602086016135b8565b614831816135e0565b840191505092915050565b5f60808201905061484f5f8301876136d6565b61485c60208301866136d6565b6148696040830185613766565b818103606083015261487b8184614804565b905095945050505050565b5f8151905061489481613516565b92915050565b5f602082840312156148af576148ae6134e3565b5b5f6148bc84828501614886565b91505092915050565b7f4e487b71000000000000000000000000000000000000000000000000000000005f52601260045260245ffd5b5f80fd5b5f80fd5b5f808585111561490d5761490c6148f2565b5b8386111561491e5761491d6148f6565b5b6001850283019150848603905094509492505050565b5f82905092915050565b5f7fffffffffffffffffffffffffffffffffffffffff00000000000000000000000082169050919050565b5f6149748383614934565b8261497f813561493e565b925060148210156149bf576149ba7fffffffffffffffffffffffffffffffffffffffff000000000000000000000000836014036008026140ef565b831692505b505092915050565b5f6040820190506149da5f8301856136d6565b6149e76020830184613766565b939250505056fea264697066735822122004a423bc245d8eaad6bad18ecfeae1d693a42a8de20a7f0e696878d2e646991e64736f6c63430008140033","linkReferences":{}},"methodIdentifiers":{"approve(address,uint256)":"095ea7b3","balanceOf(address)":"70a08231","blueMarkBalance()":"c61bc57e","blueMarkPrice()":"9d7b5a10","buyBlueMark()":"c1c75f5b","claimBlueMarkFees()":"521bb9f5","comments(uint256)":"8ebb4c15","commentsByPost(uint256,uint256)":"1939218d","createComment(uint256,string)":"40a17985","createPost(string)":"c7303c61","createProfile(string)":"334c3f0e","getApproved(uint256)":"081812fc","getCommentIdsByPost(uint256)":"16b2cc7e","getPostComments(uint256)":"d524ff76","getPostLikes(uint256)":"b0b2671d","getProfilePosts(address)":"67198358","hasBlueMark(uint256)":"bc84dffb","hasProfileBlueMark(address)":"ed37295f","isApprovedForAll(address,address)":"e985e9c5","isTrustedForwarder(address)":"572b6c05","name()":"06fdde03","nextCommentId()":"d0bdacbe","nextPostId()":"5c09bd98","nextPostNFTId()":"325a7d46","nextProfileId()":"cd1d81ff","nftToPost(uint256)":"781ba870","owner()":"8da5cb5b","ownerOf(uint256)":"6352211e","ownerToProfile(address)":"42d573a6","postLikes(uint256,uint256)":"0f449d80","postToNFT(uint256)":"d3331c07","posts(uint256)":"0b1e7f83","postsByProfile(uint256,uint256)":"dcef64bd","profileUsernames(address)":"3b193918","renounceOwnership()":"715018a6","safeTransferFrom(address,address,uint256)":"42842e0e","safeTransferFrom(address,address,uint256,bytes)":"b88d4fde","setApprovalForAll(address,bool)":"a22cb465","supportsInterface(bytes4)":"01ffc9a7","symbol()":"95d89b41","toggleLike(uint256)":"54398d18","tokenURI(uint256)":"c87b56dd","transferFrom(address,address,uint256)":"23b872dd","transferOwnership(address)":"f2fde38b","trustedForwarder()":"7da0a877"},"id":45}